{
  "contractName": "CryptoBirdz",
  "abi": [
    {
      "inputs": [],
      "stateMutability": "nonpayable",
      "type": "constructor"
    },
    {
      "anonymous": false,
      "inputs": [
        {
          "indexed": true,
          "internalType": "address",
          "name": "_owner",
          "type": "address"
        },
        {
          "indexed": true,
          "internalType": "address",
          "name": "_approved",
          "type": "address"
        },
        {
          "indexed": true,
          "internalType": "uint256",
          "name": "_tokenId",
          "type": "uint256"
        }
      ],
      "name": "Approval",
      "type": "event"
    },
    {
      "anonymous": false,
      "inputs": [
        {
          "indexed": true,
          "internalType": "address",
          "name": "_owner",
          "type": "address"
        },
        {
          "indexed": true,
          "internalType": "address",
          "name": "_operator",
          "type": "address"
        },
        {
          "indexed": false,
          "internalType": "bool",
          "name": "_approved",
          "type": "bool"
        }
      ],
      "name": "ApprovalForAll",
      "type": "event"
    },
    {
      "anonymous": false,
      "inputs": [
        {
          "indexed": true,
          "internalType": "address",
          "name": "_from",
          "type": "address"
        },
        {
          "indexed": true,
          "internalType": "address",
          "name": "_to",
          "type": "address"
        },
        {
          "indexed": true,
          "internalType": "uint256",
          "name": "_tokenId",
          "type": "uint256"
        }
      ],
      "name": "Transfer",
      "type": "event"
    },
    {
      "inputs": [
        {
          "internalType": "address",
          "name": "_approved",
          "type": "address"
        },
        {
          "internalType": "uint256",
          "name": "_tokenId",
          "type": "uint256"
        }
      ],
      "name": "approve",
      "outputs": [],
      "stateMutability": "payable",
      "type": "function"
    },
    {
      "inputs": [
        {
          "internalType": "address",
          "name": "_owner",
          "type": "address"
        }
      ],
      "name": "balanceOf",
      "outputs": [
        {
          "internalType": "uint256",
          "name": "",
          "type": "uint256"
        }
      ],
      "stateMutability": "view",
      "type": "function"
    },
    {
      "inputs": [],
      "name": "calcFingerprint",
      "outputs": [
        {
          "internalType": "bytes4",
          "name": "",
          "type": "bytes4"
        }
      ],
      "stateMutability": "pure",
      "type": "function"
    },
    {
      "inputs": [
        {
          "internalType": "uint256",
          "name": "_tokenId",
          "type": "uint256"
        }
      ],
      "name": "getApproved",
      "outputs": [
        {
          "internalType": "address",
          "name": "",
          "type": "address"
        }
      ],
      "stateMutability": "view",
      "type": "function"
    },
    {
      "inputs": [
        {
          "internalType": "uint256",
          "name": "index",
          "type": "uint256"
        }
      ],
      "name": "getTokenByIndex",
      "outputs": [
        {
          "internalType": "uint256",
          "name": "",
          "type": "uint256"
        }
      ],
      "stateMutability": "view",
      "type": "function"
    },
    {
      "inputs": [
        {
          "internalType": "address",
          "name": "owner",
          "type": "address"
        },
        {
          "internalType": "uint256",
          "name": "index",
          "type": "uint256"
        }
      ],
      "name": "getTokenOfOwnerByIndex",
      "outputs": [
        {
          "internalType": "uint256",
          "name": "",
          "type": "uint256"
        }
      ],
      "stateMutability": "view",
      "type": "function"
    },
    {
      "inputs": [
        {
          "internalType": "address",
          "name": "_owner",
          "type": "address"
        },
        {
          "internalType": "address",
          "name": "_operator",
          "type": "address"
        }
      ],
      "name": "isApprovedForAll",
      "outputs": [
        {
          "internalType": "bool",
          "name": "",
          "type": "bool"
        }
      ],
      "stateMutability": "view",
      "type": "function"
    },
    {
      "inputs": [],
      "name": "name",
      "outputs": [
        {
          "internalType": "string",
          "name": "",
          "type": "string"
        }
      ],
      "stateMutability": "view",
      "type": "function"
    },
    {
      "inputs": [
        {
          "internalType": "uint256",
          "name": "_tokenId",
          "type": "uint256"
        }
      ],
      "name": "ownerOf",
      "outputs": [
        {
          "internalType": "address",
          "name": "",
          "type": "address"
        }
      ],
      "stateMutability": "view",
      "type": "function"
    },
    {
      "inputs": [
        {
          "internalType": "bytes4",
          "name": "interfaceId",
          "type": "bytes4"
        }
      ],
      "name": "registerInterface",
      "outputs": [],
      "stateMutability": "nonpayable",
      "type": "function"
    },
    {
      "inputs": [
        {
          "internalType": "address",
          "name": "_from",
          "type": "address"
        },
        {
          "internalType": "address",
          "name": "_to",
          "type": "address"
        },
        {
          "internalType": "uint256",
          "name": "_tokenId",
          "type": "uint256"
        }
      ],
      "name": "safeTransferFrom",
      "outputs": [],
      "stateMutability": "payable",
      "type": "function"
    },
    {
      "inputs": [
        {
          "internalType": "address",
          "name": "_from",
          "type": "address"
        },
        {
          "internalType": "address",
          "name": "_to",
          "type": "address"
        },
        {
          "internalType": "uint256",
          "name": "_tokenId",
          "type": "uint256"
        },
        {
          "internalType": "bytes",
          "name": "data",
          "type": "bytes"
        }
      ],
      "name": "safeTransferFrom",
      "outputs": [],
      "stateMutability": "payable",
      "type": "function"
    },
    {
      "inputs": [
        {
          "internalType": "address",
          "name": "_operator",
          "type": "address"
        },
        {
          "internalType": "bool",
          "name": "_approved",
          "type": "bool"
        }
      ],
      "name": "setApprovalForAll",
      "outputs": [],
      "stateMutability": "nonpayable",
      "type": "function"
    },
    {
      "inputs": [
        {
          "internalType": "bytes4",
          "name": "interfaceID",
          "type": "bytes4"
        }
      ],
      "name": "supportsInterface",
      "outputs": [
        {
          "internalType": "bool",
          "name": "",
          "type": "bool"
        }
      ],
      "stateMutability": "view",
      "type": "function"
    },
    {
      "inputs": [],
      "name": "symbol",
      "outputs": [
        {
          "internalType": "string",
          "name": "",
          "type": "string"
        }
      ],
      "stateMutability": "view",
      "type": "function"
    },
    {
      "inputs": [
        {
          "internalType": "uint256",
          "name": "_index",
          "type": "uint256"
        }
      ],
      "name": "tokenByIndex",
      "outputs": [
        {
          "internalType": "uint256",
          "name": "",
          "type": "uint256"
        }
      ],
      "stateMutability": "view",
      "type": "function"
    },
    {
      "inputs": [
        {
          "internalType": "address",
          "name": "_owner",
          "type": "address"
        },
        {
          "internalType": "uint256",
          "name": "_index",
          "type": "uint256"
        }
      ],
      "name": "tokenOfOwnerByIndex",
      "outputs": [
        {
          "internalType": "uint256",
          "name": "",
          "type": "uint256"
        }
      ],
      "stateMutability": "view",
      "type": "function"
    },
    {
      "inputs": [
        {
          "internalType": "uint256",
          "name": "_tokenId",
          "type": "uint256"
        }
      ],
      "name": "tokenURI",
      "outputs": [
        {
          "internalType": "string",
          "name": "",
          "type": "string"
        }
      ],
      "stateMutability": "view",
      "type": "function"
    },
    {
      "inputs": [
        {
          "internalType": "uint256",
          "name": "",
          "type": "uint256"
        }
      ],
      "name": "tokens",
      "outputs": [
        {
          "internalType": "string",
          "name": "",
          "type": "string"
        }
      ],
      "stateMutability": "view",
      "type": "function"
    },
    {
      "inputs": [],
      "name": "totalSupply",
      "outputs": [
        {
          "internalType": "uint256",
          "name": "",
          "type": "uint256"
        }
      ],
      "stateMutability": "view",
      "type": "function"
    },
    {
      "inputs": [
        {
          "internalType": "address",
          "name": "_from",
          "type": "address"
        },
        {
          "internalType": "address",
          "name": "_to",
          "type": "address"
        },
        {
          "internalType": "uint256",
          "name": "_tokenId",
          "type": "uint256"
        }
      ],
      "name": "transferFrom",
      "outputs": [],
      "stateMutability": "payable",
      "type": "function"
    },
    {
      "inputs": [
        {
          "internalType": "string",
          "name": "_token",
          "type": "string"
        }
      ],
      "name": "mint",
      "outputs": [],
      "stateMutability": "nonpayable",
      "type": "function"
    }
  ],
  "bytecode": "0x60806040523480156200001157600080fd5b506040518060400160405280600b81526020017f43727970746f426972647a0000000000000000000000000000000000000000008152506040518060400160405280600681526020017f43424952445a00000000000000000000000000000000000000000000000000008152508181620000a0620000946200015160201b60201c565b6200017960201b60201c565b620001157f22c82707ba960a14c7592ffb6b8cfaa073fed0048a84cc7fa41f6b5bd8e7f2e47f3a6eb71757dfc6e784c1459d26270140c2c147d95ca985c80026fc5301c3eca17f8a7e378434598edc36d108689a030cbc9d7d465de4f74c71bae1028eed6a881b18186200017960201b60201c565b81600990805190602001906200012d92919062000250565b5080600a90805190602001906200014692919062000250565b5050505050620003e7565b60007f01ffc9a7a5cef8baa21ed3c5c0d7e23accb804b619e9333b597f47a0d84076e2905090565b63ffffffff60e01b817bffffffffffffffffffffffffffffffffffffffffffffffffffffffff191603620001e4576040517f08c379a0000000000000000000000000000000000000000000000000000000008152600401620001db9062000361565b60405180910390fd5b6001600080837bffffffffffffffffffffffffffffffffffffffffffffffffffffffff19167bffffffffffffffffffffffffffffffffffffffffffffffffffffffff1916815260200190815260200160002060006101000a81548160ff02191690831515021790555050565b8280546200025e90620003b2565b90600052602060002090601f016020900481019282620002825760008555620002ce565b82601f106200029d57805160ff1916838001178555620002ce565b82800160010185558215620002ce579182015b82811115620002cd578251825591602001919060010190620002b0565b5b509050620002dd9190620002e1565b5090565b5b80821115620002fc576000816000905550600101620002e2565b5090565b600082825260208201905092915050565b7f4552433136353a20496e76616c696420696e7465726661636500000000000000600082015250565b60006200034960198362000300565b9150620003568262000311565b602082019050919050565b600060208201905081810360008301526200037c816200033a565b9050919050565b7f4e487b7100000000000000000000000000000000000000000000000000000000600052602260045260246000fd5b60006002820490506001821680620003cb57607f821691505b602082108103620003e157620003e062000383565b5b50919050565b61276680620003f76000396000f3fe6080604052600436106101355760003560e01c80634f6ccce7116100ab578063a22cb4651161006f578063a22cb4651461044b578063ac615f7014610474578063b88d4fde146104b1578063c87b56dd146104cd578063d85d3d271461050a578063e985e9c51461053357610135565b80634f6ccce71461032c5780636352211e14610369578063644b7a43146103a657806370a08231146103e357806395d89b411461042057610135565b8063214cdb80116100fd578063214cdb801461022657806323b872dd1461024f5780632f745c591461026b5780633da173ba146102a857806342842e0e146102d35780634f64b2be146102ef57610135565b806301ffc9a71461013a57806306fdde0314610177578063081812fc146101a2578063095ea7b3146101df57806318160ddd146101fb575b600080fd5b34801561014657600080fd5b50610161600480360381019061015c91906118e3565b610570565b60405161016e919061192b565b60405180910390f35b34801561018357600080fd5b5061018c6105d7565b60405161019991906119df565b60405180910390f35b3480156101ae57600080fd5b506101c960048036038101906101c49190611a37565b610669565b6040516101d69190611aa5565b60405180910390f35b6101f960048036038101906101f49190611aec565b6106a6565b005b34801561020757600080fd5b50610210610903565b60405161021d9190611b3b565b60405180910390f35b34801561023257600080fd5b5061024d600480360381019061024891906118e3565b610910565b005b61026960048036038101906102649190611b56565b6109e4565b005b34801561027757600080fd5b50610292600480360381019061028d9190611aec565b6109f4565b60405161029f9190611b3b565b60405180910390f35b3480156102b457600080fd5b506102bd610a5a565b6040516102ca9190611bb8565b60405180910390f35b6102ed60048036038101906102e89190611b56565b610a82565b005b3480156102fb57600080fd5b5061031660048036038101906103119190611a37565b610a92565b60405161032391906119df565b60405180910390f35b34801561033857600080fd5b50610353600480360381019061034e9190611a37565b610b3e565b6040516103609190611b3b565b60405180910390f35b34801561037557600080fd5b50610390600480360381019061038b9190611a37565b610bad565b60405161039d9190611aa5565b60405180910390f35b3480156103b257600080fd5b506103cd60048036038101906103c89190611a37565b610c5e565b6040516103da9190611b3b565b60405180910390f35b3480156103ef57600080fd5b5061040a60048036038101906104059190611bd3565b610cdb565b6040516104179190611b3b565b60405180910390f35b34801561042c57600080fd5b50610435610d92565b60405161044291906119df565b60405180910390f35b34801561045757600080fd5b50610472600480360381019061046d9190611c2c565b610e24565b005b34801561048057600080fd5b5061049b60048036038101906104969190611aec565b610f21565b6040516104a89190611b3b565b60405180910390f35b6104cb60048036038101906104c69190611da1565b611017565b005b3480156104d957600080fd5b506104f460048036038101906104ef9190611a37565b611028565b60405161050191906119df565b60405180910390f35b34801561051657600080fd5b50610531600480360381019061052c9190611ec5565b61102f565b005b34801561053f57600080fd5b5061055a60048036038101906105559190611f0e565b611126565b604051610567919061192b565b60405180910390f35b6000806000837bffffffffffffffffffffffffffffffffffffffffffffffffffffffff19167bffffffffffffffffffffffffffffffffffffffffffffffffffffffff1916815260200190815260200160002060009054906101000a900460ff169050919050565b6060600980546105e690611f7d565b80601f016020809104026020016040519081016040528092919081815260200182805461061290611f7d565b801561065f5780601f106106345761010080835404028352916020019161065f565b820191906000526020600020905b81548152906001019060200180831161064257829003601f168201915b5050505050905090565b60006003600083815260200190815260200160002060009054906101000a900473ffffffffffffffffffffffffffffffffffffffff169050919050565b6001600082815260200190815260200160002060009054906101000a900473ffffffffffffffffffffffffffffffffffffffff1673ffffffffffffffffffffffffffffffffffffffff163373ffffffffffffffffffffffffffffffffffffffff16148061077157503373ffffffffffffffffffffffffffffffffffffffff166003600083815260200190815260200160002060009054906101000a900473ffffffffffffffffffffffffffffffffffffffff1673ffffffffffffffffffffffffffffffffffffffff16145b6107b0576040517f08c379a00000000000000000000000000000000000000000000000000000000081526004016107a790612020565b60405180910390fd5b600073ffffffffffffffffffffffffffffffffffffffff168273ffffffffffffffffffffffffffffffffffffffff160361081f576040517f08c379a00000000000000000000000000000000000000000000000000000000081526004016108169061208c565b60405180910390fd5b816003600083815260200190815260200160002060006101000a81548173ffffffffffffffffffffffffffffffffffffffff021916908373ffffffffffffffffffffffffffffffffffffffff160217905550808273ffffffffffffffffffffffffffffffffffffffff166001600084815260200190815260200160002060009054906101000a900473ffffffffffffffffffffffffffffffffffffffff1673ffffffffffffffffffffffffffffffffffffffff167f8c5be1e5ebec7d5bd14f71427d1e84f3dd0314c0f7b2291e5b200ac8c7c3b92560405160405180910390a45050565b6000600580549050905090565b63ffffffff60e01b817bffffffffffffffffffffffffffffffffffffffffffffffffffffffff191603610978576040517f08c379a000000000000000000000000000000000000000000000000000000000815260040161096f906120f8565b60405180910390fd5b6001600080837bffffffffffffffffffffffffffffffffffffffffffffffffffffffff19167bffffffffffffffffffffffffffffffffffffffffffffffffffffffff1916815260200190815260200160002060006101000a81548160ff02191690831515021790555050565b6109ef8383836111ba565b505050565b6000600760008473ffffffffffffffffffffffffffffffffffffffff1673ffffffffffffffffffffffffffffffffffffffff1681526020019081526020016000208281548110610a4757610a46612118565b5b9060005260206000200154905092915050565b60007f01ffc9a7a5cef8baa21ed3c5c0d7e23accb804b619e9333b597f47a0d84076e2905090565b610a8d8383836111ba565b505050565b600b8181548110610aa257600080fd5b906000526020600020016000915090508054610abd90611f7d565b80601f0160208091040260200160405190810160405280929190818152602001828054610ae990611f7d565b8015610b365780601f10610b0b57610100808354040283529160200191610b36565b820191906000526020600020905b815481529060010190602001808311610b1957829003601f168201915b505050505081565b60006005805490508210610b87576040517f08c379a0000000000000000000000000000000000000000000000000000000008152600401610b7e90612193565b60405180910390fd5b60058281548110610b9b57610b9a612118565b5b90600052602060002001549050919050565b6000806001600084815260200190815260200160002060009054906101000a900473ffffffffffffffffffffffffffffffffffffffff169050600073ffffffffffffffffffffffffffffffffffffffff168173ffffffffffffffffffffffffffffffffffffffff1603610c55576040517f08c379a0000000000000000000000000000000000000000000000000000000008152600401610c4c90612225565b60405180910390fd5b80915050919050565b6000808210158015610c765750610c73610903565b82105b610cb5576040517f08c379a0000000000000000000000000000000000000000000000000000000008152600401610cac90612291565b60405180910390fd5b60058281548110610cc957610cc8612118565b5b90600052602060002001549050919050565b60008073ffffffffffffffffffffffffffffffffffffffff168273ffffffffffffffffffffffffffffffffffffffff1603610d4b576040517f08c379a0000000000000000000000000000000000000000000000000000000008152600401610d4290612323565b60405180910390fd5b600260008373ffffffffffffffffffffffffffffffffffffffff1673ffffffffffffffffffffffffffffffffffffffff168152602001908152602001600020549050919050565b6060600a8054610da190611f7d565b80601f0160208091040260200160405190810160405280929190818152602001828054610dcd90611f7d565b8015610e1a5780601f10610def57610100808354040283529160200191610e1a565b820191906000526020600020905b815481529060010190602001808311610dfd57829003601f168201915b5050505050905090565b80600460003373ffffffffffffffffffffffffffffffffffffffff1673ffffffffffffffffffffffffffffffffffffffff16815260200190815260200160002060008473ffffffffffffffffffffffffffffffffffffffff1673ffffffffffffffffffffffffffffffffffffffff16815260200190815260200160002060006101000a81548160ff0219169083151502179055508173ffffffffffffffffffffffffffffffffffffffff163373ffffffffffffffffffffffffffffffffffffffff167f17307eab39ab6107e8899845ad3d59bd9653f200f220920489ca2b5937696c3183604051610f15919061192b565b60405180910390a35050565b6000808210158015610f745750600760008473ffffffffffffffffffffffffffffffffffffffff1673ffffffffffffffffffffffffffffffffffffffff1681526020019081526020016000208054905082105b610fb3576040517f08c379a0000000000000000000000000000000000000000000000000000000008152600401610faa9061238f565b60405180910390fd5b600760008473ffffffffffffffffffffffffffffffffffffffff1673ffffffffffffffffffffffffffffffffffffffff168152602001908152602001600020828154811061100457611003612118565b5b9060005260206000200154905092915050565b6110228484846111ba565b50505050565b6060919050565b600c8160405161103f91906123eb565b908152602001604051809103902060009054906101000a900460ff161561109b576040517f08c379a00000000000000000000000000000000000000000000000000000000081526004016110929061244e565b60405180910390fd5b6000600b805490509050600b829080600181540180825580915050600190039060005260206000200160009091909190915090805190602001906110e09291906117d4565b506110eb3382611530565b6001600c836040516110fd91906123eb565b908152602001604051809103902060006101000a81548160ff0219169083151502179055505050565b6000600460008473ffffffffffffffffffffffffffffffffffffffff1673ffffffffffffffffffffffffffffffffffffffff16815260200190815260200160002060008373ffffffffffffffffffffffffffffffffffffffff1673ffffffffffffffffffffffffffffffffffffffff16815260200190815260200160002060009054906101000a900460ff16905092915050565b6001600082815260200190815260200160002060009054906101000a900473ffffffffffffffffffffffffffffffffffffffff1673ffffffffffffffffffffffffffffffffffffffff163373ffffffffffffffffffffffffffffffffffffffff16148061128557503373ffffffffffffffffffffffffffffffffffffffff166003600083815260200190815260200160002060009054906101000a900473ffffffffffffffffffffffffffffffffffffffff1673ffffffffffffffffffffffffffffffffffffffff16145b6112c4576040517f08c379a00000000000000000000000000000000000000000000000000000000081526004016112bb906124e0565b60405180910390fd5b6001600082815260200190815260200160002060009054906101000a900473ffffffffffffffffffffffffffffffffffffffff1673ffffffffffffffffffffffffffffffffffffffff168373ffffffffffffffffffffffffffffffffffffffff1614611365576040517f08c379a000000000000000000000000000000000000000000000000000000000815260040161135c90612572565b60405180910390fd5b600073ffffffffffffffffffffffffffffffffffffffff168273ffffffffffffffffffffffffffffffffffffffff16036113d4576040517f08c379a00000000000000000000000000000000000000000000000000000000081526004016113cb90612604565b60405180910390fd5b816001600083815260200190815260200160002060006101000a81548173ffffffffffffffffffffffffffffffffffffffff021916908373ffffffffffffffffffffffffffffffffffffffff160217905550600260008473ffffffffffffffffffffffffffffffffffffffff1673ffffffffffffffffffffffffffffffffffffffff168152602001908152602001600020600081548092919061147690612653565b9190505550600260008373ffffffffffffffffffffffffffffffffffffffff1673ffffffffffffffffffffffffffffffffffffffff16815260200190815260200160002060008154809291906114cb9061267c565b9190505550808273ffffffffffffffffffffffffffffffffffffffff168473ffffffffffffffffffffffffffffffffffffffff167fddf252ad1be2c89b69c2b068fc378daa952ba7f163c4a11628f55a4df523b3ef60405160405180910390a4505050565b61153981611551565b611543828261159a565b61154d828261165e565b5050565b6005805490506006600083815260200190815260200160002081905550600581908060018154018082558091505060019003906000526020600020016000909190919091505550565b600760008373ffffffffffffffffffffffffffffffffffffffff1673ffffffffffffffffffffffffffffffffffffffff168152602001908152602001600020805490506008600083815260200190815260200160002081905550600760008373ffffffffffffffffffffffffffffffffffffffff1673ffffffffffffffffffffffffffffffffffffffff1681526020019081526020016000208190806001815401808255809150506001900390600052602060002001600090919091909150555050565b600073ffffffffffffffffffffffffffffffffffffffff168273ffffffffffffffffffffffffffffffffffffffff16036116cd576040517f08c379a00000000000000000000000000000000000000000000000000000000081526004016116c490612710565b60405180910390fd5b816001600083815260200190815260200160002060006101000a81548173ffffffffffffffffffffffffffffffffffffffff021916908373ffffffffffffffffffffffffffffffffffffffff160217905550600260008373ffffffffffffffffffffffffffffffffffffffff1673ffffffffffffffffffffffffffffffffffffffff168152602001908152602001600020600081548092919061176f9061267c565b9190505550808273ffffffffffffffffffffffffffffffffffffffff16600073ffffffffffffffffffffffffffffffffffffffff167fddf252ad1be2c89b69c2b068fc378daa952ba7f163c4a11628f55a4df523b3ef60405160405180910390a45050565b8280546117e090611f7d565b90600052602060002090601f0160209004810192826118025760008555611849565b82601f1061181b57805160ff1916838001178555611849565b82800160010185558215611849579182015b8281111561184857825182559160200191906001019061182d565b5b509050611856919061185a565b5090565b5b8082111561187357600081600090555060010161185b565b5090565b6000604051905090565b600080fd5b600080fd5b60007fffffffff0000000000000000000000000000000000000000000000000000000082169050919050565b6118c08161188b565b81146118cb57600080fd5b50565b6000813590506118dd816118b7565b92915050565b6000602082840312156118f9576118f8611881565b5b6000611907848285016118ce565b91505092915050565b60008115159050919050565b61192581611910565b82525050565b6000602082019050611940600083018461191c565b92915050565b600081519050919050565b600082825260208201905092915050565b60005b83811015611980578082015181840152602081019050611965565b8381111561198f576000848401525b50505050565b6000601f19601f8301169050919050565b60006119b182611946565b6119bb8185611951565b93506119cb818560208601611962565b6119d481611995565b840191505092915050565b600060208201905081810360008301526119f981846119a6565b905092915050565b6000819050919050565b611a1481611a01565b8114611a1f57600080fd5b50565b600081359050611a3181611a0b565b92915050565b600060208284031215611a4d57611a4c611881565b5b6000611a5b84828501611a22565b91505092915050565b600073ffffffffffffffffffffffffffffffffffffffff82169050919050565b6000611a8f82611a64565b9050919050565b611a9f81611a84565b82525050565b6000602082019050611aba6000830184611a96565b92915050565b611ac981611a84565b8114611ad457600080fd5b50565b600081359050611ae681611ac0565b92915050565b60008060408385031215611b0357611b02611881565b5b6000611b1185828601611ad7565b9250506020611b2285828601611a22565b9150509250929050565b611b3581611a01565b82525050565b6000602082019050611b506000830184611b2c565b92915050565b600080600060608486031215611b6f57611b6e611881565b5b6000611b7d86828701611ad7565b9350506020611b8e86828701611ad7565b9250506040611b9f86828701611a22565b9150509250925092565b611bb28161188b565b82525050565b6000602082019050611bcd6000830184611ba9565b92915050565b600060208284031215611be957611be8611881565b5b6000611bf784828501611ad7565b91505092915050565b611c0981611910565b8114611c1457600080fd5b50565b600081359050611c2681611c00565b92915050565b60008060408385031215611c4357611c42611881565b5b6000611c5185828601611ad7565b9250506020611c6285828601611c17565b9150509250929050565b600080fd5b600080fd5b7f4e487b7100000000000000000000000000000000000000000000000000000000600052604160045260246000fd5b611cae82611995565b810181811067ffffffffffffffff82111715611ccd57611ccc611c76565b5b80604052505050565b6000611ce0611877565b9050611cec8282611ca5565b919050565b600067ffffffffffffffff821115611d0c57611d0b611c76565b5b611d1582611995565b9050602081019050919050565b82818337600083830152505050565b6000611d44611d3f84611cf1565b611cd6565b905082815260208101848484011115611d6057611d5f611c71565b5b611d6b848285611d22565b509392505050565b600082601f830112611d8857611d87611c6c565b5b8135611d98848260208601611d31565b91505092915050565b60008060008060808587031215611dbb57611dba611881565b5b6000611dc987828801611ad7565b9450506020611dda87828801611ad7565b9350506040611deb87828801611a22565b925050606085013567ffffffffffffffff811115611e0c57611e0b611886565b5b611e1887828801611d73565b91505092959194509250565b600067ffffffffffffffff821115611e3f57611e3e611c76565b5b611e4882611995565b9050602081019050919050565b6000611e68611e6384611e24565b611cd6565b905082815260208101848484011115611e8457611e83611c71565b5b611e8f848285611d22565b509392505050565b600082601f830112611eac57611eab611c6c565b5b8135611ebc848260208601611e55565b91505092915050565b600060208284031215611edb57611eda611881565b5b600082013567ffffffffffffffff811115611ef957611ef8611886565b5b611f0584828501611e97565b91505092915050565b60008060408385031215611f2557611f24611881565b5b6000611f3385828601611ad7565b9250506020611f4485828601611ad7565b9150509250929050565b7f4e487b7100000000000000000000000000000000000000000000000000000000600052602260045260246000fd5b60006002820490506001821680611f9557607f821691505b602082108103611fa857611fa7611f4e565b5b50919050565b7f417070726f76616c206973206f6e6c7920616c6c6f776564206279206175746860008201527f6f72697a65642061646472657373657300000000000000000000000000000000602082015250565b600061200a603083611951565b915061201582611fae565b604082019050919050565b6000602082019050818103600083015261203981611ffd565b9050919050565b7f43616e7420617070726f7665207a65726f206164647265737300000000000000600082015250565b6000612076601983611951565b915061208182612040565b602082019050919050565b600060208201905081810360008301526120a581612069565b9050919050565b7f4552433136353a20496e76616c696420696e7465726661636500000000000000600082015250565b60006120e2601983611951565b91506120ed826120ac565b602082019050919050565b60006020820190508181036000830152612111816120d5565b9050919050565b7f4e487b7100000000000000000000000000000000000000000000000000000000600052603260045260246000fd5b7f546f6b656e20617420696e64657820646f6573206e6f74206578697374000000600082015250565b600061217d601d83611951565b915061218882612147565b602082019050919050565b600060208201905081810360008301526121ac81612170565b9050919050565b7f546f6b656e20646f6573206e6f74206861766520612076616c6964206f776e6560008201527f7220616464726573730000000000000000000000000000000000000000000000602082015250565b600061220f602983611951565b915061221a826121b3565b604082019050919050565b6000602082019050818103600083015261223e81612202565b9050919050565b7f476c6f62616c20696e646578206973206f7574206f6620626f756e6473000000600082015250565b600061227b601d83611951565b915061228682612245565b602082019050919050565b600060208201905081810360008301526122aa8161226e565b9050919050565b7f43616e6e6f742066696e642062616c616e6365206f6620746865207a65726f2060008201527f6164647265737300000000000000000000000000000000000000000000000000602082015250565b600061230d602783611951565b9150612318826122b1565b604082019050919050565b6000602082019050818103600083015261233c81612300565b9050919050565b7f4f776e657220696e646578206973206f7574206f6620626f756e647300000000600082015250565b6000612379601c83611951565b915061238482612343565b602082019050919050565b600060208201905081810360008301526123a88161236c565b9050919050565b600081905092915050565b60006123c582611946565b6123cf81856123af565b93506123df818560208601611962565b80840191505092915050565b60006123f782846123ba565b915081905092915050565b7f546f6b656e20616c726561647920657869737473000000000000000000000000600082015250565b6000612438601483611951565b915061244382612402565b602082019050919050565b600060208201905081810360008301526124678161242b565b9050919050565b7f5472616e736665722063616e206f6e6c7920626520696e69746961746564206260008201527f7920617070726f76656420616464726573736573000000000000000000000000602082015250565b60006124ca603483611951565b91506124d58261246e565b604082019050919050565b600060208201905081810360008301526124f9816124bd565b9050919050565b7f5472616e73666572206d7573742062652066726f6d207468652063757272656e60008201527f74206f776e657200000000000000000000000000000000000000000000000000602082015250565b600061255c602783611951565b915061256782612500565b604082019050919050565b6000602082019050818103600083015261258b8161254f565b9050919050565b7f5472616e736665722063616e6e6f7420626520746f20746865207a65726f206160008201527f6464726573730000000000000000000000000000000000000000000000000000602082015250565b60006125ee602683611951565b91506125f982612592565b604082019050919050565b6000602082019050818103600083015261261d816125e1565b9050919050565b7f4e487b7100000000000000000000000000000000000000000000000000000000600052601160045260246000fd5b600061265e82611a01565b91506000820361267157612670612624565b5b600182039050919050565b600061268782611a01565b91507fffffffffffffffffffffffffffffffffffffffffffffffffffffffffffffffff82036126b9576126b8612624565b5b600182019050919050565b7f4e6f7420612076616c6964206164647265737300000000000000000000000000600082015250565b60006126fa601383611951565b9150612705826126c4565b602082019050919050565b60006020820190508181036000830152612729816126ed565b905091905056fea2646970667358221220fe18a4f8855a80f35355eb312f5a0640938c79b4916598ae066ffffeca5446b064736f6c634300080d0033",
  "immutableReferences": {},
  "source": "// SPDX-License-Identifier: MIT\npragma solidity >=0.4.22 <0.9.0;\n\nimport './ERC721Connector.sol';\nimport './ERC721.sol';\n\ncontract CryptoBirdz is ERC721Connector {\n    string[] public tokens;\n    mapping(string => bool) _CryptoBirdExists;\n\n    string private name;\n    string private symbol;\n\n    constructor() ERC721Connector('CryptoBirdz', 'CBIRDZ') {}\n\n    function mint(string memory _token) public {\n        // Ensures token doesn't already exist\n        require(!_CryptoBirdExists[_token], 'Token already exists');\n\n        // Adds token to storage array\n        uint256 _id = tokens.length;\n        tokens.push(_token);\n\n        // Mints the token\n        _mint(msg.sender, _id);\n        _CryptoBirdExists[_token] = true;\n    }\n}\n",
  "sourcePath": "/Users/mattsaxe17/repos/personal-nft-marketplace/src/contracts/CryptoBirdz.sol",
  "compiler": {
    "name": "solc",
    "version": "0.8.13+commit.abaa5c0e.Emscripten.clang"
  },
  "schemaVersion": "3.4.4",
  "updatedAt": "2022-03-22T00:47:23.556Z",
  "devdoc": {
    "kind": "dev",
    "methods": {
      "tokenOfOwnerByIndex(address,uint256)": {
        "details": "Throws if `_index` >= `balanceOf(_owner)` or if  `_owner` is the zero address, representing invalid NFTs.",
        "params": {
          "_index": "A counter less than `balanceOf(_owner)`",
          "_owner": "An address where we are interested in NFTs owned by them"
        },
        "returns": {
          "_0": "The token identifier for the `_index`th NFT assigned to `_owner`,   (sort order not specified)"
        }
      }
    },
    "version": 1
  },
  "userdoc": {
    "kind": "user",
    "methods": {
      "tokenOfOwnerByIndex(address,uint256)": {
        "notice": "Enumerate NFTs assigned to an owner"
      }
    },
    "version": 1
  }
}