{
  "contractName": "ERC165",
  "abi": [
    {
      "inputs": [],
      "stateMutability": "nonpayable",
      "type": "constructor"
    },
    {
      "inputs": [
        {
          "internalType": "bytes4",
          "name": "interfaceID",
          "type": "bytes4"
        }
      ],
      "name": "supportsInterface",
      "outputs": [
        {
          "internalType": "bool",
          "name": "",
          "type": "bool"
        }
      ],
      "stateMutability": "view",
      "type": "function"
    },
    {
      "inputs": [],
      "name": "calcFingerprint",
      "outputs": [
        {
          "internalType": "bytes4",
          "name": "",
          "type": "bytes4"
        }
      ],
      "stateMutability": "pure",
      "type": "function"
    },
    {
      "inputs": [
        {
          "internalType": "bytes4",
          "name": "interfaceId",
          "type": "bytes4"
        }
      ],
      "name": "registerInterface",
      "outputs": [],
      "stateMutability": "nonpayable",
      "type": "function"
    }
  ],
  "bytecode": "0x608060405234801561001057600080fd5b5061002d61002261003260201b60201c565b61005a60201b60201c565b6101ab565b60007f01ffc9a7a5cef8baa21ed3c5c0d7e23accb804b619e9333b597f47a0d84076e2905090565b63ffffffff60e01b817bffffffffffffffffffffffffffffffffffffffffffffffffffffffff1916036100c2576040517f08c379a00000000000000000000000000000000000000000000000000000000081526004016100b99061018b565b60405180910390fd5b6001600080837bffffffffffffffffffffffffffffffffffffffffffffffffffffffff19167bffffffffffffffffffffffffffffffffffffffffffffffffffffffff1916815260200190815260200160002060006101000a81548160ff02191690831515021790555050565b600082825260208201905092915050565b7f4552433136353a20496e76616c696420696e7465726661636500000000000000600082015250565b600061017560198361012e565b91506101808261013f565b602082019050919050565b600060208201905081810360008301526101a481610168565b9050919050565b6103b0806101ba6000396000f3fe608060405234801561001057600080fd5b50600436106100415760003560e01c806301ffc9a714610046578063214cdb80146100765780633da173ba14610092575b600080fd5b610060600480360381019061005b9190610270565b6100b0565b60405161006d91906102b8565b60405180910390f35b610090600480360381019061008b9190610270565b610117565b005b61009a6101eb565b6040516100a791906102e2565b60405180910390f35b6000806000837bffffffffffffffffffffffffffffffffffffffffffffffffffffffff19167bffffffffffffffffffffffffffffffffffffffffffffffffffffffff1916815260200190815260200160002060009054906101000a900460ff169050919050565b63ffffffff60e01b817bffffffffffffffffffffffffffffffffffffffffffffffffffffffff19160361017f576040517f08c379a00000000000000000000000000000000000000000000000000000000081526004016101769061035a565b60405180910390fd5b6001600080837bffffffffffffffffffffffffffffffffffffffffffffffffffffffff19167bffffffffffffffffffffffffffffffffffffffffffffffffffffffff1916815260200190815260200160002060006101000a81548160ff02191690831515021790555050565b60007f01ffc9a7a5cef8baa21ed3c5c0d7e23accb804b619e9333b597f47a0d84076e2905090565b600080fd5b60007fffffffff0000000000000000000000000000000000000000000000000000000082169050919050565b61024d81610218565b811461025857600080fd5b50565b60008135905061026a81610244565b92915050565b60006020828403121561028657610285610213565b5b60006102948482850161025b565b91505092915050565b60008115159050919050565b6102b28161029d565b82525050565b60006020820190506102cd60008301846102a9565b92915050565b6102dc81610218565b82525050565b60006020820190506102f760008301846102d3565b92915050565b600082825260208201905092915050565b7f4552433136353a20496e76616c696420696e7465726661636500000000000000600082015250565b60006103446019836102fd565b915061034f8261030e565b602082019050919050565b6000602082019050818103600083015261037381610337565b905091905056fea264697066735822122047bce00ce4b208d977bc4b94307cd2bd4a071aa7e7edf82c14f7f247414eced564736f6c634300080d0033",
  "immutableReferences": {},
  "source": "pragma solidity >=0.4.22 <0.9.0;\n\nimport './interfaces/IERC165.sol';\n\ncontract ERC165 is IERC165 {\n    mapping(bytes4 => bool) private _supportedInterfaces;\n\n    constructor() {\n        registerInterface(calcFingerprint());\n    }\n\n    function supportsInterface(bytes4 interfaceID) external view override returns (bool) {\n        return _supportedInterfaces[interfaceID];\n    }\n\n    function calcFingerprint() public pure returns (bytes4) {\n        return bytes4(keccak256('supportsInterface(bytes4)'));\n    }\n\n    function registerInterface(bytes4 interfaceId) public {\n        require(interfaceId != 0xffffffff, 'ERC165: Invalid interface');\n        _supportedInterfaces[interfaceId] = true;\n    }\n}\n",
  "sourcePath": "/Users/mattsaxe17/repos/personal-nft-marketplace/src/contracts/ERC165.sol",
  "compiler": {
    "name": "solc",
    "version": "0.8.13+commit.abaa5c0e.Emscripten.clang"
  },
  "schemaVersion": "3.4.4",
  "updatedAt": "2022-03-22T00:47:23.562Z",
  "devdoc": {
    "kind": "dev",
    "methods": {},
    "version": 1
  },
  "userdoc": {
    "kind": "user",
    "methods": {},
    "version": 1
  }
}