{
  "contractName": "ERC721Connector",
  "abi": [
    {
      "inputs": [
        {
          "internalType": "string",
          "name": "name",
          "type": "string"
        },
        {
          "internalType": "string",
          "name": "symbol",
          "type": "string"
        }
      ],
      "stateMutability": "nonpayable",
      "type": "constructor"
    },
    {
      "anonymous": false,
      "inputs": [
        {
          "indexed": true,
          "internalType": "address",
          "name": "_owner",
          "type": "address"
        },
        {
          "indexed": true,
          "internalType": "address",
          "name": "_approved",
          "type": "address"
        },
        {
          "indexed": true,
          "internalType": "uint256",
          "name": "_tokenId",
          "type": "uint256"
        }
      ],
      "name": "Approval",
      "type": "event"
    },
    {
      "anonymous": false,
      "inputs": [
        {
          "indexed": true,
          "internalType": "address",
          "name": "_owner",
          "type": "address"
        },
        {
          "indexed": true,
          "internalType": "address",
          "name": "_operator",
          "type": "address"
        },
        {
          "indexed": false,
          "internalType": "bool",
          "name": "_approved",
          "type": "bool"
        }
      ],
      "name": "ApprovalForAll",
      "type": "event"
    },
    {
      "anonymous": false,
      "inputs": [
        {
          "indexed": true,
          "internalType": "address",
          "name": "_from",
          "type": "address"
        },
        {
          "indexed": true,
          "internalType": "address",
          "name": "_to",
          "type": "address"
        },
        {
          "indexed": true,
          "internalType": "uint256",
          "name": "_tokenId",
          "type": "uint256"
        }
      ],
      "name": "Transfer",
      "type": "event"
    },
    {
      "inputs": [
        {
          "internalType": "address",
          "name": "_approved",
          "type": "address"
        },
        {
          "internalType": "uint256",
          "name": "_tokenId",
          "type": "uint256"
        }
      ],
      "name": "approve",
      "outputs": [],
      "stateMutability": "payable",
      "type": "function"
    },
    {
      "inputs": [
        {
          "internalType": "address",
          "name": "_owner",
          "type": "address"
        }
      ],
      "name": "balanceOf",
      "outputs": [
        {
          "internalType": "uint256",
          "name": "",
          "type": "uint256"
        }
      ],
      "stateMutability": "view",
      "type": "function"
    },
    {
      "inputs": [],
      "name": "calcFingerprint",
      "outputs": [
        {
          "internalType": "bytes4",
          "name": "",
          "type": "bytes4"
        }
      ],
      "stateMutability": "pure",
      "type": "function"
    },
    {
      "inputs": [
        {
          "internalType": "uint256",
          "name": "_tokenId",
          "type": "uint256"
        }
      ],
      "name": "getApproved",
      "outputs": [
        {
          "internalType": "address",
          "name": "",
          "type": "address"
        }
      ],
      "stateMutability": "view",
      "type": "function"
    },
    {
      "inputs": [
        {
          "internalType": "uint256",
          "name": "index",
          "type": "uint256"
        }
      ],
      "name": "getTokenByIndex",
      "outputs": [
        {
          "internalType": "uint256",
          "name": "",
          "type": "uint256"
        }
      ],
      "stateMutability": "view",
      "type": "function"
    },
    {
      "inputs": [
        {
          "internalType": "address",
          "name": "owner",
          "type": "address"
        },
        {
          "internalType": "uint256",
          "name": "index",
          "type": "uint256"
        }
      ],
      "name": "getTokenOfOwnerByIndex",
      "outputs": [
        {
          "internalType": "uint256",
          "name": "",
          "type": "uint256"
        }
      ],
      "stateMutability": "view",
      "type": "function"
    },
    {
      "inputs": [
        {
          "internalType": "address",
          "name": "_owner",
          "type": "address"
        },
        {
          "internalType": "address",
          "name": "_operator",
          "type": "address"
        }
      ],
      "name": "isApprovedForAll",
      "outputs": [
        {
          "internalType": "bool",
          "name": "",
          "type": "bool"
        }
      ],
      "stateMutability": "view",
      "type": "function"
    },
    {
      "inputs": [],
      "name": "name",
      "outputs": [
        {
          "internalType": "string",
          "name": "",
          "type": "string"
        }
      ],
      "stateMutability": "view",
      "type": "function"
    },
    {
      "inputs": [
        {
          "internalType": "uint256",
          "name": "_tokenId",
          "type": "uint256"
        }
      ],
      "name": "ownerOf",
      "outputs": [
        {
          "internalType": "address",
          "name": "",
          "type": "address"
        }
      ],
      "stateMutability": "view",
      "type": "function"
    },
    {
      "inputs": [
        {
          "internalType": "bytes4",
          "name": "interfaceId",
          "type": "bytes4"
        }
      ],
      "name": "registerInterface",
      "outputs": [],
      "stateMutability": "nonpayable",
      "type": "function"
    },
    {
      "inputs": [
        {
          "internalType": "address",
          "name": "_from",
          "type": "address"
        },
        {
          "internalType": "address",
          "name": "_to",
          "type": "address"
        },
        {
          "internalType": "uint256",
          "name": "_tokenId",
          "type": "uint256"
        }
      ],
      "name": "safeTransferFrom",
      "outputs": [],
      "stateMutability": "payable",
      "type": "function"
    },
    {
      "inputs": [
        {
          "internalType": "address",
          "name": "_from",
          "type": "address"
        },
        {
          "internalType": "address",
          "name": "_to",
          "type": "address"
        },
        {
          "internalType": "uint256",
          "name": "_tokenId",
          "type": "uint256"
        },
        {
          "internalType": "bytes",
          "name": "data",
          "type": "bytes"
        }
      ],
      "name": "safeTransferFrom",
      "outputs": [],
      "stateMutability": "payable",
      "type": "function"
    },
    {
      "inputs": [
        {
          "internalType": "address",
          "name": "_operator",
          "type": "address"
        },
        {
          "internalType": "bool",
          "name": "_approved",
          "type": "bool"
        }
      ],
      "name": "setApprovalForAll",
      "outputs": [],
      "stateMutability": "nonpayable",
      "type": "function"
    },
    {
      "inputs": [
        {
          "internalType": "bytes4",
          "name": "interfaceID",
          "type": "bytes4"
        }
      ],
      "name": "supportsInterface",
      "outputs": [
        {
          "internalType": "bool",
          "name": "",
          "type": "bool"
        }
      ],
      "stateMutability": "view",
      "type": "function"
    },
    {
      "inputs": [],
      "name": "symbol",
      "outputs": [
        {
          "internalType": "string",
          "name": "",
          "type": "string"
        }
      ],
      "stateMutability": "view",
      "type": "function"
    },
    {
      "inputs": [
        {
          "internalType": "uint256",
          "name": "_index",
          "type": "uint256"
        }
      ],
      "name": "tokenByIndex",
      "outputs": [
        {
          "internalType": "uint256",
          "name": "",
          "type": "uint256"
        }
      ],
      "stateMutability": "view",
      "type": "function"
    },
    {
      "inputs": [
        {
          "internalType": "address",
          "name": "_owner",
          "type": "address"
        },
        {
          "internalType": "uint256",
          "name": "_index",
          "type": "uint256"
        }
      ],
      "name": "tokenOfOwnerByIndex",
      "outputs": [
        {
          "internalType": "uint256",
          "name": "",
          "type": "uint256"
        }
      ],
      "stateMutability": "view",
      "type": "function"
    },
    {
      "inputs": [
        {
          "internalType": "uint256",
          "name": "_tokenId",
          "type": "uint256"
        }
      ],
      "name": "tokenURI",
      "outputs": [
        {
          "internalType": "string",
          "name": "",
          "type": "string"
        }
      ],
      "stateMutability": "view",
      "type": "function"
    },
    {
      "inputs": [],
      "name": "totalSupply",
      "outputs": [
        {
          "internalType": "uint256",
          "name": "",
          "type": "uint256"
        }
      ],
      "stateMutability": "view",
      "type": "function"
    },
    {
      "inputs": [
        {
          "internalType": "address",
          "name": "_from",
          "type": "address"
        },
        {
          "internalType": "address",
          "name": "_to",
          "type": "address"
        },
        {
          "internalType": "uint256",
          "name": "_tokenId",
          "type": "uint256"
        }
      ],
      "name": "transferFrom",
      "outputs": [],
      "stateMutability": "payable",
      "type": "function"
    }
  ],
  "bytecode": "0x60806040523480156200001157600080fd5b50604051620025c7380380620025c7833981810160405281019062000037919062000457565b8181620000596200004d6200010a60201b60201c565b6200013260201b60201c565b620000ce7f22c82707ba960a14c7592ffb6b8cfaa073fed0048a84cc7fa41f6b5bd8e7f2e47f3a6eb71757dfc6e784c1459d26270140c2c147d95ca985c80026fc5301c3eca17f8a7e378434598edc36d108689a030cbc9d7d465de4f74c71bae1028eed6a881b18186200013260201b60201c565b8160099080519060200190620000e69291906200020a565b5080600a9080519060200190620000ff9291906200020a565b5050505050620005c4565b60007f01ffc9a7a5cef8baa21ed3c5c0d7e23accb804b619e9333b597f47a0d84076e2905090565b63ffffffff60e01b817bffffffffffffffffffffffffffffffffffffffffffffffffffffffff191614156200019e576040517f08c379a000000000000000000000000000000000000000000000000000000000815260040162000195906200053d565b60405180910390fd5b6001600080837bffffffffffffffffffffffffffffffffffffffffffffffffffffffff19167bffffffffffffffffffffffffffffffffffffffffffffffffffffffff1916815260200190815260200160002060006101000a81548160ff02191690831515021790555050565b82805462000218906200058e565b90600052602060002090601f0160209004810192826200023c576000855562000288565b82601f106200025757805160ff191683800117855562000288565b8280016001018555821562000288579182015b82811115620002875782518255916020019190600101906200026a565b5b5090506200029791906200029b565b5090565b5b80821115620002b65760008160009055506001016200029c565b5090565b6000604051905090565b600080fd5b600080fd5b600080fd5b600080fd5b6000601f19601f8301169050919050565b7f4e487b7100000000000000000000000000000000000000000000000000000000600052604160045260246000fd5b6200032382620002d8565b810181811067ffffffffffffffff82111715620003455762000344620002e9565b5b80604052505050565b60006200035a620002ba565b905062000368828262000318565b919050565b600067ffffffffffffffff8211156200038b576200038a620002e9565b5b6200039682620002d8565b9050602081019050919050565b60005b83811015620003c3578082015181840152602081019050620003a6565b83811115620003d3576000848401525b50505050565b6000620003f0620003ea846200036d565b6200034e565b9050828152602081018484840111156200040f576200040e620002d3565b5b6200041c848285620003a3565b509392505050565b600082601f8301126200043c576200043b620002ce565b5b81516200044e848260208601620003d9565b91505092915050565b60008060408385031215620004715762000470620002c4565b5b600083015167ffffffffffffffff811115620004925762000491620002c9565b5b620004a08582860162000424565b925050602083015167ffffffffffffffff811115620004c457620004c3620002c9565b5b620004d28582860162000424565b9150509250929050565b600082825260208201905092915050565b7f4552433136353a20496e76616c696420696e7465726661636500000000000000600082015250565b600062000525601983620004dc565b91506200053282620004ed565b602082019050919050565b60006020820190508181036000830152620005588162000516565b9050919050565b7f4e487b7100000000000000000000000000000000000000000000000000000000600052602260045260246000fd5b60006002820490506001821680620005a757607f821691505b60208210811415620005be57620005bd6200055f565b5b50919050565b611ff380620005d46000396000f3fe60806040526004361061011f5760003560e01c80634f6ccce7116100a0578063a22cb46511610064578063a22cb465146103f8578063ac615f7014610421578063b88d4fde1461045e578063c87b56dd1461047a578063e985e9c5146104b75761011f565b80634f6ccce7146102d95780636352211e14610316578063644b7a431461035357806370a082311461039057806395d89b41146103cd5761011f565b8063214cdb80116100e7578063214cdb801461021057806323b872dd146102395780632f745c59146102555780633da173ba1461029257806342842e0e146102bd5761011f565b806301ffc9a71461012457806306fdde0314610161578063081812fc1461018c578063095ea7b3146101c957806318160ddd146101e5575b600080fd5b34801561013057600080fd5b5061014b60048036038101906101469190611382565b6104f4565b60405161015891906113ca565b60405180910390f35b34801561016d57600080fd5b5061017661055b565b604051610183919061147e565b60405180910390f35b34801561019857600080fd5b506101b360048036038101906101ae91906114d6565b6105ed565b6040516101c09190611544565b60405180910390f35b6101e360048036038101906101de919061158b565b61062a565b005b3480156101f157600080fd5b506101fa610888565b60405161020791906115da565b60405180910390f35b34801561021c57600080fd5b5061023760048036038101906102329190611382565b610895565b005b610253600480360381019061024e91906115f5565b61096a565b005b34801561026157600080fd5b5061027c6004803603810190610277919061158b565b61097a565b60405161028991906115da565b60405180910390f35b34801561029e57600080fd5b506102a76109e0565b6040516102b49190611657565b60405180910390f35b6102d760048036038101906102d291906115f5565b610a08565b005b3480156102e557600080fd5b5061030060048036038101906102fb91906114d6565b610a18565b60405161030d91906115da565b60405180910390f35b34801561032257600080fd5b5061033d600480360381019061033891906114d6565b610a87565b60405161034a9190611544565b60405180910390f35b34801561035f57600080fd5b5061037a600480360381019061037591906114d6565b610b39565b60405161038791906115da565b60405180910390f35b34801561039c57600080fd5b506103b760048036038101906103b29190611672565b610bb6565b6040516103c491906115da565b60405180910390f35b3480156103d957600080fd5b506103e2610c6e565b6040516103ef919061147e565b60405180910390f35b34801561040457600080fd5b5061041f600480360381019061041a91906116cb565b610d00565b005b34801561042d57600080fd5b506104486004803603810190610443919061158b565b610dfd565b60405161045591906115da565b60405180910390f35b61047860048036038101906104739190611840565b610ef3565b005b34801561048657600080fd5b506104a1600480360381019061049c91906114d6565b610f04565b6040516104ae919061147e565b60405180910390f35b3480156104c357600080fd5b506104de60048036038101906104d991906118c3565b610f0b565b6040516104eb91906113ca565b60405180910390f35b6000806000837bffffffffffffffffffffffffffffffffffffffffffffffffffffffff19167bffffffffffffffffffffffffffffffffffffffffffffffffffffffff1916815260200190815260200160002060009054906101000a900460ff169050919050565b60606009805461056a90611932565b80601f016020809104026020016040519081016040528092919081815260200182805461059690611932565b80156105e35780601f106105b8576101008083540402835291602001916105e3565b820191906000526020600020905b8154815290600101906020018083116105c657829003601f168201915b5050505050905090565b60006003600083815260200190815260200160002060009054906101000a900473ffffffffffffffffffffffffffffffffffffffff169050919050565b6001600082815260200190815260200160002060009054906101000a900473ffffffffffffffffffffffffffffffffffffffff1673ffffffffffffffffffffffffffffffffffffffff163373ffffffffffffffffffffffffffffffffffffffff1614806106f557503373ffffffffffffffffffffffffffffffffffffffff166003600083815260200190815260200160002060009054906101000a900473ffffffffffffffffffffffffffffffffffffffff1673ffffffffffffffffffffffffffffffffffffffff16145b610734576040517f08c379a000000000000000000000000000000000000000000000000000000000815260040161072b906119d6565b60405180910390fd5b600073ffffffffffffffffffffffffffffffffffffffff168273ffffffffffffffffffffffffffffffffffffffff1614156107a4576040517f08c379a000000000000000000000000000000000000000000000000000000000815260040161079b90611a42565b60405180910390fd5b816003600083815260200190815260200160002060006101000a81548173ffffffffffffffffffffffffffffffffffffffff021916908373ffffffffffffffffffffffffffffffffffffffff160217905550808273ffffffffffffffffffffffffffffffffffffffff166001600084815260200190815260200160002060009054906101000a900473ffffffffffffffffffffffffffffffffffffffff1673ffffffffffffffffffffffffffffffffffffffff167f8c5be1e5ebec7d5bd14f71427d1e84f3dd0314c0f7b2291e5b200ac8c7c3b92560405160405180910390a45050565b6000600580549050905090565b63ffffffff60e01b817bffffffffffffffffffffffffffffffffffffffffffffffffffffffff191614156108fe576040517f08c379a00000000000000000000000000000000000000000000000000000000081526004016108f590611aae565b60405180910390fd5b6001600080837bffffffffffffffffffffffffffffffffffffffffffffffffffffffff19167bffffffffffffffffffffffffffffffffffffffffffffffffffffffff1916815260200190815260200160002060006101000a81548160ff02191690831515021790555050565b610975838383610f9f565b505050565b6000600760008473ffffffffffffffffffffffffffffffffffffffff1673ffffffffffffffffffffffffffffffffffffffff16815260200190815260200160002082815481106109cd576109cc611ace565b5b9060005260206000200154905092915050565b60007f01ffc9a7a5cef8baa21ed3c5c0d7e23accb804b619e9333b597f47a0d84076e2905090565b610a13838383610f9f565b505050565b60006005805490508210610a61576040517f08c379a0000000000000000000000000000000000000000000000000000000008152600401610a5890611b49565b60405180910390fd5b60058281548110610a7557610a74611ace565b5b90600052602060002001549050919050565b6000806001600084815260200190815260200160002060009054906101000a900473ffffffffffffffffffffffffffffffffffffffff169050600073ffffffffffffffffffffffffffffffffffffffff168173ffffffffffffffffffffffffffffffffffffffff161415610b30576040517f08c379a0000000000000000000000000000000000000000000000000000000008152600401610b2790611bdb565b60405180910390fd5b80915050919050565b6000808210158015610b515750610b4e610888565b82105b610b90576040517f08c379a0000000000000000000000000000000000000000000000000000000008152600401610b8790611c47565b60405180910390fd5b60058281548110610ba457610ba3611ace565b5b90600052602060002001549050919050565b60008073ffffffffffffffffffffffffffffffffffffffff168273ffffffffffffffffffffffffffffffffffffffff161415610c27576040517f08c379a0000000000000000000000000000000000000000000000000000000008152600401610c1e90611cd9565b60405180910390fd5b600260008373ffffffffffffffffffffffffffffffffffffffff1673ffffffffffffffffffffffffffffffffffffffff168152602001908152602001600020549050919050565b6060600a8054610c7d90611932565b80601f0160208091040260200160405190810160405280929190818152602001828054610ca990611932565b8015610cf65780601f10610ccb57610100808354040283529160200191610cf6565b820191906000526020600020905b815481529060010190602001808311610cd957829003601f168201915b5050505050905090565b80600460003373ffffffffffffffffffffffffffffffffffffffff1673ffffffffffffffffffffffffffffffffffffffff16815260200190815260200160002060008473ffffffffffffffffffffffffffffffffffffffff1673ffffffffffffffffffffffffffffffffffffffff16815260200190815260200160002060006101000a81548160ff0219169083151502179055508173ffffffffffffffffffffffffffffffffffffffff163373ffffffffffffffffffffffffffffffffffffffff167f17307eab39ab6107e8899845ad3d59bd9653f200f220920489ca2b5937696c3183604051610df191906113ca565b60405180910390a35050565b6000808210158015610e505750600760008473ffffffffffffffffffffffffffffffffffffffff1673ffffffffffffffffffffffffffffffffffffffff1681526020019081526020016000208054905082105b610e8f576040517f08c379a0000000000000000000000000000000000000000000000000000000008152600401610e8690611d45565b60405180910390fd5b600760008473ffffffffffffffffffffffffffffffffffffffff1673ffffffffffffffffffffffffffffffffffffffff1681526020019081526020016000208281548110610ee057610edf611ace565b5b9060005260206000200154905092915050565b610efe848484610f9f565b50505050565b6060919050565b6000600460008473ffffffffffffffffffffffffffffffffffffffff1673ffffffffffffffffffffffffffffffffffffffff16815260200190815260200160002060008373ffffffffffffffffffffffffffffffffffffffff1673ffffffffffffffffffffffffffffffffffffffff16815260200190815260200160002060009054906101000a900460ff16905092915050565b6001600082815260200190815260200160002060009054906101000a900473ffffffffffffffffffffffffffffffffffffffff1673ffffffffffffffffffffffffffffffffffffffff163373ffffffffffffffffffffffffffffffffffffffff16148061106a57503373ffffffffffffffffffffffffffffffffffffffff166003600083815260200190815260200160002060009054906101000a900473ffffffffffffffffffffffffffffffffffffffff1673ffffffffffffffffffffffffffffffffffffffff16145b6110a9576040517f08c379a00000000000000000000000000000000000000000000000000000000081526004016110a090611dd7565b60405180910390fd5b6001600082815260200190815260200160002060009054906101000a900473ffffffffffffffffffffffffffffffffffffffff1673ffffffffffffffffffffffffffffffffffffffff168373ffffffffffffffffffffffffffffffffffffffff161461114a576040517f08c379a000000000000000000000000000000000000000000000000000000000815260040161114190611e69565b60405180910390fd5b600073ffffffffffffffffffffffffffffffffffffffff168273ffffffffffffffffffffffffffffffffffffffff1614156111ba576040517f08c379a00000000000000000000000000000000000000000000000000000000081526004016111b190611efb565b60405180910390fd5b816001600083815260200190815260200160002060006101000a81548173ffffffffffffffffffffffffffffffffffffffff021916908373ffffffffffffffffffffffffffffffffffffffff160217905550600260008473ffffffffffffffffffffffffffffffffffffffff1673ffffffffffffffffffffffffffffffffffffffff168152602001908152602001600020600081548092919061125c90611f4a565b9190505550600260008373ffffffffffffffffffffffffffffffffffffffff1673ffffffffffffffffffffffffffffffffffffffff16815260200190815260200160002060008154809291906112b190611f74565b9190505550808273ffffffffffffffffffffffffffffffffffffffff168473ffffffffffffffffffffffffffffffffffffffff167fddf252ad1be2c89b69c2b068fc378daa952ba7f163c4a11628f55a4df523b3ef60405160405180910390a4505050565b6000604051905090565b600080fd5b600080fd5b60007fffffffff0000000000000000000000000000000000000000000000000000000082169050919050565b61135f8161132a565b811461136a57600080fd5b50565b60008135905061137c81611356565b92915050565b60006020828403121561139857611397611320565b5b60006113a68482850161136d565b91505092915050565b60008115159050919050565b6113c4816113af565b82525050565b60006020820190506113df60008301846113bb565b92915050565b600081519050919050565b600082825260208201905092915050565b60005b8381101561141f578082015181840152602081019050611404565b8381111561142e576000848401525b50505050565b6000601f19601f8301169050919050565b6000611450826113e5565b61145a81856113f0565b935061146a818560208601611401565b61147381611434565b840191505092915050565b600060208201905081810360008301526114988184611445565b905092915050565b6000819050919050565b6114b3816114a0565b81146114be57600080fd5b50565b6000813590506114d0816114aa565b92915050565b6000602082840312156114ec576114eb611320565b5b60006114fa848285016114c1565b91505092915050565b600073ffffffffffffffffffffffffffffffffffffffff82169050919050565b600061152e82611503565b9050919050565b61153e81611523565b82525050565b60006020820190506115596000830184611535565b92915050565b61156881611523565b811461157357600080fd5b50565b6000813590506115858161155f565b92915050565b600080604083850312156115a2576115a1611320565b5b60006115b085828601611576565b92505060206115c1858286016114c1565b9150509250929050565b6115d4816114a0565b82525050565b60006020820190506115ef60008301846115cb565b92915050565b60008060006060848603121561160e5761160d611320565b5b600061161c86828701611576565b935050602061162d86828701611576565b925050604061163e868287016114c1565b9150509250925092565b6116518161132a565b82525050565b600060208201905061166c6000830184611648565b92915050565b60006020828403121561168857611687611320565b5b600061169684828501611576565b91505092915050565b6116a8816113af565b81146116b357600080fd5b50565b6000813590506116c58161169f565b92915050565b600080604083850312156116e2576116e1611320565b5b60006116f085828601611576565b9250506020611701858286016116b6565b9150509250929050565b600080fd5b600080fd5b7f4e487b7100000000000000000000000000000000000000000000000000000000600052604160045260246000fd5b61174d82611434565b810181811067ffffffffffffffff8211171561176c5761176b611715565b5b80604052505050565b600061177f611316565b905061178b8282611744565b919050565b600067ffffffffffffffff8211156117ab576117aa611715565b5b6117b482611434565b9050602081019050919050565b82818337600083830152505050565b60006117e36117de84611790565b611775565b9050828152602081018484840111156117ff576117fe611710565b5b61180a8482856117c1565b509392505050565b600082601f8301126118275761182661170b565b5b81356118378482602086016117d0565b91505092915050565b6000806000806080858703121561185a57611859611320565b5b600061186887828801611576565b945050602061187987828801611576565b935050604061188a878288016114c1565b925050606085013567ffffffffffffffff8111156118ab576118aa611325565b5b6118b787828801611812565b91505092959194509250565b600080604083850312156118da576118d9611320565b5b60006118e885828601611576565b92505060206118f985828601611576565b9150509250929050565b7f4e487b7100000000000000000000000000000000000000000000000000000000600052602260045260246000fd5b6000600282049050600182168061194a57607f821691505b6020821081141561195e5761195d611903565b5b50919050565b7f417070726f76616c206973206f6e6c7920616c6c6f776564206279206175746860008201527f6f72697a65642061646472657373657300000000000000000000000000000000602082015250565b60006119c06030836113f0565b91506119cb82611964565b604082019050919050565b600060208201905081810360008301526119ef816119b3565b9050919050565b7f43616e7420617070726f7665207a65726f206164647265737300000000000000600082015250565b6000611a2c6019836113f0565b9150611a37826119f6565b602082019050919050565b60006020820190508181036000830152611a5b81611a1f565b9050919050565b7f4552433136353a20496e76616c696420696e7465726661636500000000000000600082015250565b6000611a986019836113f0565b9150611aa382611a62565b602082019050919050565b60006020820190508181036000830152611ac781611a8b565b9050919050565b7f4e487b7100000000000000000000000000000000000000000000000000000000600052603260045260246000fd5b7f546f6b656e20617420696e64657820646f6573206e6f74206578697374000000600082015250565b6000611b33601d836113f0565b9150611b3e82611afd565b602082019050919050565b60006020820190508181036000830152611b6281611b26565b9050919050565b7f546f6b656e20646f6573206e6f74206861766520612076616c6964206f776e6560008201527f7220616464726573730000000000000000000000000000000000000000000000602082015250565b6000611bc56029836113f0565b9150611bd082611b69565b604082019050919050565b60006020820190508181036000830152611bf481611bb8565b9050919050565b7f476c6f62616c20696e646578206973206f7574206f6620626f756e6473000000600082015250565b6000611c31601d836113f0565b9150611c3c82611bfb565b602082019050919050565b60006020820190508181036000830152611c6081611c24565b9050919050565b7f43616e6e6f742066696e642062616c616e6365206f6620746865207a65726f2060008201527f6164647265737300000000000000000000000000000000000000000000000000602082015250565b6000611cc36027836113f0565b9150611cce82611c67565b604082019050919050565b60006020820190508181036000830152611cf281611cb6565b9050919050565b7f4f776e657220696e646578206973206f7574206f6620626f756e647300000000600082015250565b6000611d2f601c836113f0565b9150611d3a82611cf9565b602082019050919050565b60006020820190508181036000830152611d5e81611d22565b9050919050565b7f5472616e736665722063616e206f6e6c7920626520696e69746961746564206260008201527f7920617070726f76656420616464726573736573000000000000000000000000602082015250565b6000611dc16034836113f0565b9150611dcc82611d65565b604082019050919050565b60006020820190508181036000830152611df081611db4565b9050919050565b7f5472616e73666572206d7573742062652066726f6d207468652063757272656e60008201527f74206f776e657200000000000000000000000000000000000000000000000000602082015250565b6000611e536027836113f0565b9150611e5e82611df7565b604082019050919050565b60006020820190508181036000830152611e8281611e46565b9050919050565b7f5472616e736665722063616e6e6f7420626520746f20746865207a65726f206160008201527f6464726573730000000000000000000000000000000000000000000000000000602082015250565b6000611ee56026836113f0565b9150611ef082611e89565b604082019050919050565b60006020820190508181036000830152611f1481611ed8565b9050919050565b7f4e487b7100000000000000000000000000000000000000000000000000000000600052601160045260246000fd5b6000611f55826114a0565b91506000821415611f6957611f68611f1b565b5b600182039050919050565b6000611f7f826114a0565b91507fffffffffffffffffffffffffffffffffffffffffffffffffffffffffffffffff821415611fb257611fb1611f1b565b5b60018201905091905056fea2646970667358221220677664b1cec80320e5f3126124e1d133fa11fd80c34b48c92e9dd5f9f706dff264736f6c634300080b0033",
  "immutableReferences": {},
  "source": "// SPDX-License-Identifier: MIT\npragma solidity >=0.4.22 <0.9.0;\n\nimport './ERC721Metadata.sol';\nimport './ERC721Enumerable.sol';\n\ncontract ERC721Connector is ERC721Enumerable, ERC721Metadata {\n    constructor(string memory name, string memory symbol) ERC721Metadata(name, symbol) {}\n}\n",
  "sourcePath": "/Users/mattsaxe17/repos/_eth/nft-marketplace-starter-kit/src/contracts/ERC721Connector.sol",
  "compiler": {
    "name": "solc",
    "version": "0.8.11+commit.d7f03943.Emscripten.clang"
  },
  "schemaVersion": "3.4.4",
  "updatedAt": "2022-02-13T16:47:25.030Z",
  "devdoc": {
    "kind": "dev",
    "methods": {
      "tokenOfOwnerByIndex(address,uint256)": {
        "details": "Throws if `_index` >= `balanceOf(_owner)` or if  `_owner` is the zero address, representing invalid NFTs.",
        "params": {
          "_index": "A counter less than `balanceOf(_owner)`",
          "_owner": "An address where we are interested in NFTs owned by them"
        },
        "returns": {
          "_0": "The token identifier for the `_index`th NFT assigned to `_owner`,   (sort order not specified)"
        }
      }
    },
    "version": 1
  },
  "userdoc": {
    "kind": "user",
    "methods": {
      "tokenOfOwnerByIndex(address,uint256)": {
        "notice": "Enumerate NFTs assigned to an owner"
      }
    },
    "version": 1
  }
}