{
  "contractName": "ERC721",
  "abi": [
    {
      "inputs": [],
      "stateMutability": "nonpayable",
      "type": "constructor"
    },
    {
      "anonymous": false,
      "inputs": [
        {
          "indexed": true,
          "internalType": "address",
          "name": "_owner",
          "type": "address"
        },
        {
          "indexed": true,
          "internalType": "address",
          "name": "_approved",
          "type": "address"
        },
        {
          "indexed": true,
          "internalType": "uint256",
          "name": "_tokenId",
          "type": "uint256"
        }
      ],
      "name": "Approval",
      "type": "event"
    },
    {
      "anonymous": false,
      "inputs": [
        {
          "indexed": true,
          "internalType": "address",
          "name": "_owner",
          "type": "address"
        },
        {
          "indexed": true,
          "internalType": "address",
          "name": "_operator",
          "type": "address"
        },
        {
          "indexed": false,
          "internalType": "bool",
          "name": "_approved",
          "type": "bool"
        }
      ],
      "name": "ApprovalForAll",
      "type": "event"
    },
    {
      "anonymous": false,
      "inputs": [
        {
          "indexed": true,
          "internalType": "address",
          "name": "_from",
          "type": "address"
        },
        {
          "indexed": true,
          "internalType": "address",
          "name": "_to",
          "type": "address"
        },
        {
          "indexed": true,
          "internalType": "uint256",
          "name": "_tokenId",
          "type": "uint256"
        }
      ],
      "name": "Transfer",
      "type": "event"
    },
    {
      "inputs": [],
      "name": "calcFingerprint",
      "outputs": [
        {
          "internalType": "bytes4",
          "name": "",
          "type": "bytes4"
        }
      ],
      "stateMutability": "pure",
      "type": "function"
    },
    {
      "inputs": [
        {
          "internalType": "bytes4",
          "name": "interfaceId",
          "type": "bytes4"
        }
      ],
      "name": "registerInterface",
      "outputs": [],
      "stateMutability": "nonpayable",
      "type": "function"
    },
    {
      "inputs": [
        {
          "internalType": "bytes4",
          "name": "interfaceID",
          "type": "bytes4"
        }
      ],
      "name": "supportsInterface",
      "outputs": [
        {
          "internalType": "bool",
          "name": "",
          "type": "bool"
        }
      ],
      "stateMutability": "view",
      "type": "function"
    },
    {
      "inputs": [
        {
          "internalType": "address",
          "name": "_owner",
          "type": "address"
        }
      ],
      "name": "balanceOf",
      "outputs": [
        {
          "internalType": "uint256",
          "name": "",
          "type": "uint256"
        }
      ],
      "stateMutability": "view",
      "type": "function"
    },
    {
      "inputs": [
        {
          "internalType": "uint256",
          "name": "_tokenId",
          "type": "uint256"
        }
      ],
      "name": "ownerOf",
      "outputs": [
        {
          "internalType": "address",
          "name": "",
          "type": "address"
        }
      ],
      "stateMutability": "view",
      "type": "function"
    },
    {
      "inputs": [
        {
          "internalType": "address",
          "name": "_from",
          "type": "address"
        },
        {
          "internalType": "address",
          "name": "_to",
          "type": "address"
        },
        {
          "internalType": "uint256",
          "name": "_tokenId",
          "type": "uint256"
        }
      ],
      "name": "safeTransferFrom",
      "outputs": [],
      "stateMutability": "payable",
      "type": "function"
    },
    {
      "inputs": [
        {
          "internalType": "address",
          "name": "_from",
          "type": "address"
        },
        {
          "internalType": "address",
          "name": "_to",
          "type": "address"
        },
        {
          "internalType": "uint256",
          "name": "_tokenId",
          "type": "uint256"
        },
        {
          "internalType": "bytes",
          "name": "data",
          "type": "bytes"
        }
      ],
      "name": "safeTransferFrom",
      "outputs": [],
      "stateMutability": "payable",
      "type": "function"
    },
    {
      "inputs": [
        {
          "internalType": "address",
          "name": "_from",
          "type": "address"
        },
        {
          "internalType": "address",
          "name": "_to",
          "type": "address"
        },
        {
          "internalType": "uint256",
          "name": "_tokenId",
          "type": "uint256"
        }
      ],
      "name": "transferFrom",
      "outputs": [],
      "stateMutability": "payable",
      "type": "function"
    },
    {
      "inputs": [
        {
          "internalType": "address",
          "name": "_approved",
          "type": "address"
        },
        {
          "internalType": "uint256",
          "name": "_tokenId",
          "type": "uint256"
        }
      ],
      "name": "approve",
      "outputs": [],
      "stateMutability": "payable",
      "type": "function"
    },
    {
      "inputs": [
        {
          "internalType": "address",
          "name": "_operator",
          "type": "address"
        },
        {
          "internalType": "bool",
          "name": "_approved",
          "type": "bool"
        }
      ],
      "name": "setApprovalForAll",
      "outputs": [],
      "stateMutability": "nonpayable",
      "type": "function"
    },
    {
      "inputs": [
        {
          "internalType": "uint256",
          "name": "_tokenId",
          "type": "uint256"
        }
      ],
      "name": "getApproved",
      "outputs": [
        {
          "internalType": "address",
          "name": "",
          "type": "address"
        }
      ],
      "stateMutability": "view",
      "type": "function"
    },
    {
      "inputs": [
        {
          "internalType": "address",
          "name": "_owner",
          "type": "address"
        },
        {
          "internalType": "address",
          "name": "_operator",
          "type": "address"
        }
      ],
      "name": "isApprovedForAll",
      "outputs": [
        {
          "internalType": "bool",
          "name": "",
          "type": "bool"
        }
      ],
      "stateMutability": "view",
      "type": "function"
    }
  ],
  "bytecode": "0x60806040523480156200001157600080fd5b506200003262000026620000ad60201b60201c565b620000d560201b60201c565b620000a77f22c82707ba960a14c7592ffb6b8cfaa073fed0048a84cc7fa41f6b5bd8e7f2e47f3a6eb71757dfc6e784c1459d26270140c2c147d95ca985c80026fc5301c3eca17f8a7e378434598edc36d108689a030cbc9d7d465de4f74c71bae1028eed6a881b1818620000d560201b60201c565b6200022f565b60007f01ffc9a7a5cef8baa21ed3c5c0d7e23accb804b619e9333b597f47a0d84076e2905090565b63ffffffff60e01b817bffffffffffffffffffffffffffffffffffffffffffffffffffffffff19160362000140576040517f08c379a000000000000000000000000000000000000000000000000000000000815260040162000137906200020d565b60405180910390fd5b6001600080837bffffffffffffffffffffffffffffffffffffffffffffffffffffffff19167bffffffffffffffffffffffffffffffffffffffffffffffffffffffff1916815260200190815260200160002060006101000a81548160ff02191690831515021790555050565b600082825260208201905092915050565b7f4552433136353a20496e76616c696420696e7465726661636500000000000000600082015250565b6000620001f5601983620001ac565b91506200020282620001bd565b602082019050919050565b600060208201905081810360008301526200022881620001e6565b9050919050565b6117d5806200023f6000396000f3fe6080604052600436106100a75760003560e01c806342842e0e1161006457806342842e0e146101b25780636352211e146101ce57806370a082311461020b578063a22cb46514610248578063b88d4fde14610271578063e985e9c51461028d576100a7565b806301ffc9a7146100ac578063081812fc146100e9578063095ea7b314610126578063214cdb801461014257806323b872dd1461016b5780633da173ba14610187575b600080fd5b3480156100b857600080fd5b506100d360048036038101906100ce9190610dd3565b6102ca565b6040516100e09190610e1b565b60405180910390f35b3480156100f557600080fd5b50610110600480360381019061010b9190610e6c565b610331565b60405161011d9190610eda565b60405180910390f35b610140600480360381019061013b9190610f21565b61036e565b005b34801561014e57600080fd5b5061016960048036038101906101649190610dd3565b6105cb565b005b61018560048036038101906101809190610f61565b61069f565b005b34801561019357600080fd5b5061019c6106af565b6040516101a99190610fc3565b60405180910390f35b6101cc60048036038101906101c79190610f61565b6106d7565b005b3480156101da57600080fd5b506101f560048036038101906101f09190610e6c565b6106e7565b6040516102029190610eda565b60405180910390f35b34801561021757600080fd5b50610232600480360381019061022d9190610fde565b610798565b60405161023f919061101a565b60405180910390f35b34801561025457600080fd5b5061026f600480360381019061026a9190611061565b61084f565b005b61028b600480360381019061028691906111e7565b61094c565b005b34801561029957600080fd5b506102b460048036038101906102af919061126a565b61095d565b6040516102c19190610e1b565b60405180910390f35b6000806000837bffffffffffffffffffffffffffffffffffffffffffffffffffffffff19167bffffffffffffffffffffffffffffffffffffffffffffffffffffffff1916815260200190815260200160002060009054906101000a900460ff169050919050565b60006003600083815260200190815260200160002060009054906101000a900473ffffffffffffffffffffffffffffffffffffffff169050919050565b6001600082815260200190815260200160002060009054906101000a900473ffffffffffffffffffffffffffffffffffffffff1673ffffffffffffffffffffffffffffffffffffffff163373ffffffffffffffffffffffffffffffffffffffff16148061043957503373ffffffffffffffffffffffffffffffffffffffff166003600083815260200190815260200160002060009054906101000a900473ffffffffffffffffffffffffffffffffffffffff1673ffffffffffffffffffffffffffffffffffffffff16145b610478576040517f08c379a000000000000000000000000000000000000000000000000000000000815260040161046f9061132d565b60405180910390fd5b600073ffffffffffffffffffffffffffffffffffffffff168273ffffffffffffffffffffffffffffffffffffffff16036104e7576040517f08c379a00000000000000000000000000000000000000000000000000000000081526004016104de90611399565b60405180910390fd5b816003600083815260200190815260200160002060006101000a81548173ffffffffffffffffffffffffffffffffffffffff021916908373ffffffffffffffffffffffffffffffffffffffff160217905550808273ffffffffffffffffffffffffffffffffffffffff166001600084815260200190815260200160002060009054906101000a900473ffffffffffffffffffffffffffffffffffffffff1673ffffffffffffffffffffffffffffffffffffffff167f8c5be1e5ebec7d5bd14f71427d1e84f3dd0314c0f7b2291e5b200ac8c7c3b92560405160405180910390a45050565b63ffffffff60e01b817bffffffffffffffffffffffffffffffffffffffffffffffffffffffff191603610633576040517f08c379a000000000000000000000000000000000000000000000000000000000815260040161062a90611405565b60405180910390fd5b6001600080837bffffffffffffffffffffffffffffffffffffffffffffffffffffffff19167bffffffffffffffffffffffffffffffffffffffffffffffffffffffff1916815260200190815260200160002060006101000a81548160ff02191690831515021790555050565b6106aa8383836109f1565b505050565b60007f01ffc9a7a5cef8baa21ed3c5c0d7e23accb804b619e9333b597f47a0d84076e2905090565b6106e28383836109f1565b505050565b6000806001600084815260200190815260200160002060009054906101000a900473ffffffffffffffffffffffffffffffffffffffff169050600073ffffffffffffffffffffffffffffffffffffffff168173ffffffffffffffffffffffffffffffffffffffff160361078f576040517f08c379a000000000000000000000000000000000000000000000000000000000815260040161078690611497565b60405180910390fd5b80915050919050565b60008073ffffffffffffffffffffffffffffffffffffffff168273ffffffffffffffffffffffffffffffffffffffff1603610808576040517f08c379a00000000000000000000000000000000000000000000000000000000081526004016107ff90611529565b60405180910390fd5b600260008373ffffffffffffffffffffffffffffffffffffffff1673ffffffffffffffffffffffffffffffffffffffff168152602001908152602001600020549050919050565b80600460003373ffffffffffffffffffffffffffffffffffffffff1673ffffffffffffffffffffffffffffffffffffffff16815260200190815260200160002060008473ffffffffffffffffffffffffffffffffffffffff1673ffffffffffffffffffffffffffffffffffffffff16815260200190815260200160002060006101000a81548160ff0219169083151502179055508173ffffffffffffffffffffffffffffffffffffffff163373ffffffffffffffffffffffffffffffffffffffff167f17307eab39ab6107e8899845ad3d59bd9653f200f220920489ca2b5937696c31836040516109409190610e1b565b60405180910390a35050565b6109578484846109f1565b50505050565b6000600460008473ffffffffffffffffffffffffffffffffffffffff1673ffffffffffffffffffffffffffffffffffffffff16815260200190815260200160002060008373ffffffffffffffffffffffffffffffffffffffff1673ffffffffffffffffffffffffffffffffffffffff16815260200190815260200160002060009054906101000a900460ff16905092915050565b6001600082815260200190815260200160002060009054906101000a900473ffffffffffffffffffffffffffffffffffffffff1673ffffffffffffffffffffffffffffffffffffffff163373ffffffffffffffffffffffffffffffffffffffff161480610abc57503373ffffffffffffffffffffffffffffffffffffffff166003600083815260200190815260200160002060009054906101000a900473ffffffffffffffffffffffffffffffffffffffff1673ffffffffffffffffffffffffffffffffffffffff16145b610afb576040517f08c379a0000000000000000000000000000000000000000000000000000000008152600401610af2906115bb565b60405180910390fd5b6001600082815260200190815260200160002060009054906101000a900473ffffffffffffffffffffffffffffffffffffffff1673ffffffffffffffffffffffffffffffffffffffff168373ffffffffffffffffffffffffffffffffffffffff1614610b9c576040517f08c379a0000000000000000000000000000000000000000000000000000000008152600401610b939061164d565b60405180910390fd5b600073ffffffffffffffffffffffffffffffffffffffff168273ffffffffffffffffffffffffffffffffffffffff1603610c0b576040517f08c379a0000000000000000000000000000000000000000000000000000000008152600401610c02906116df565b60405180910390fd5b816001600083815260200190815260200160002060006101000a81548173ffffffffffffffffffffffffffffffffffffffff021916908373ffffffffffffffffffffffffffffffffffffffff160217905550600260008473ffffffffffffffffffffffffffffffffffffffff1673ffffffffffffffffffffffffffffffffffffffff1681526020019081526020016000206000815480929190610cad9061172e565b9190505550600260008373ffffffffffffffffffffffffffffffffffffffff1673ffffffffffffffffffffffffffffffffffffffff1681526020019081526020016000206000815480929190610d0290611757565b9190505550808273ffffffffffffffffffffffffffffffffffffffff168473ffffffffffffffffffffffffffffffffffffffff167fddf252ad1be2c89b69c2b068fc378daa952ba7f163c4a11628f55a4df523b3ef60405160405180910390a4505050565b6000604051905090565b600080fd5b600080fd5b60007fffffffff0000000000000000000000000000000000000000000000000000000082169050919050565b610db081610d7b565b8114610dbb57600080fd5b50565b600081359050610dcd81610da7565b92915050565b600060208284031215610de957610de8610d71565b5b6000610df784828501610dbe565b91505092915050565b60008115159050919050565b610e1581610e00565b82525050565b6000602082019050610e306000830184610e0c565b92915050565b6000819050919050565b610e4981610e36565b8114610e5457600080fd5b50565b600081359050610e6681610e40565b92915050565b600060208284031215610e8257610e81610d71565b5b6000610e9084828501610e57565b91505092915050565b600073ffffffffffffffffffffffffffffffffffffffff82169050919050565b6000610ec482610e99565b9050919050565b610ed481610eb9565b82525050565b6000602082019050610eef6000830184610ecb565b92915050565b610efe81610eb9565b8114610f0957600080fd5b50565b600081359050610f1b81610ef5565b92915050565b60008060408385031215610f3857610f37610d71565b5b6000610f4685828601610f0c565b9250506020610f5785828601610e57565b9150509250929050565b600080600060608486031215610f7a57610f79610d71565b5b6000610f8886828701610f0c565b9350506020610f9986828701610f0c565b9250506040610faa86828701610e57565b9150509250925092565b610fbd81610d7b565b82525050565b6000602082019050610fd86000830184610fb4565b92915050565b600060208284031215610ff457610ff3610d71565b5b600061100284828501610f0c565b91505092915050565b61101481610e36565b82525050565b600060208201905061102f600083018461100b565b92915050565b61103e81610e00565b811461104957600080fd5b50565b60008135905061105b81611035565b92915050565b6000806040838503121561107857611077610d71565b5b600061108685828601610f0c565b92505060206110978582860161104c565b9150509250929050565b600080fd5b600080fd5b6000601f19601f8301169050919050565b7f4e487b7100000000000000000000000000000000000000000000000000000000600052604160045260246000fd5b6110f4826110ab565b810181811067ffffffffffffffff82111715611113576111126110bc565b5b80604052505050565b6000611126610d67565b905061113282826110eb565b919050565b600067ffffffffffffffff821115611152576111516110bc565b5b61115b826110ab565b9050602081019050919050565b82818337600083830152505050565b600061118a61118584611137565b61111c565b9050828152602081018484840111156111a6576111a56110a6565b5b6111b1848285611168565b509392505050565b600082601f8301126111ce576111cd6110a1565b5b81356111de848260208601611177565b91505092915050565b6000806000806080858703121561120157611200610d71565b5b600061120f87828801610f0c565b945050602061122087828801610f0c565b935050604061123187828801610e57565b925050606085013567ffffffffffffffff81111561125257611251610d76565b5b61125e878288016111b9565b91505092959194509250565b6000806040838503121561128157611280610d71565b5b600061128f85828601610f0c565b92505060206112a085828601610f0c565b9150509250929050565b600082825260208201905092915050565b7f417070726f76616c206973206f6e6c7920616c6c6f776564206279206175746860008201527f6f72697a65642061646472657373657300000000000000000000000000000000602082015250565b60006113176030836112aa565b9150611322826112bb565b604082019050919050565b600060208201905081810360008301526113468161130a565b9050919050565b7f43616e7420617070726f7665207a65726f206164647265737300000000000000600082015250565b60006113836019836112aa565b915061138e8261134d565b602082019050919050565b600060208201905081810360008301526113b281611376565b9050919050565b7f4552433136353a20496e76616c696420696e7465726661636500000000000000600082015250565b60006113ef6019836112aa565b91506113fa826113b9565b602082019050919050565b6000602082019050818103600083015261141e816113e2565b9050919050565b7f546f6b656e20646f6573206e6f74206861766520612076616c6964206f776e6560008201527f7220616464726573730000000000000000000000000000000000000000000000602082015250565b60006114816029836112aa565b915061148c82611425565b604082019050919050565b600060208201905081810360008301526114b081611474565b9050919050565b7f43616e6e6f742066696e642062616c616e6365206f6620746865207a65726f2060008201527f6164647265737300000000000000000000000000000000000000000000000000602082015250565b60006115136027836112aa565b915061151e826114b7565b604082019050919050565b6000602082019050818103600083015261154281611506565b9050919050565b7f5472616e736665722063616e206f6e6c7920626520696e69746961746564206260008201527f7920617070726f76656420616464726573736573000000000000000000000000602082015250565b60006115a56034836112aa565b91506115b082611549565b604082019050919050565b600060208201905081810360008301526115d481611598565b9050919050565b7f5472616e73666572206d7573742062652066726f6d207468652063757272656e60008201527f74206f776e657200000000000000000000000000000000000000000000000000602082015250565b60006116376027836112aa565b9150611642826115db565b604082019050919050565b600060208201905081810360008301526116668161162a565b9050919050565b7f5472616e736665722063616e6e6f7420626520746f20746865207a65726f206160008201527f6464726573730000000000000000000000000000000000000000000000000000602082015250565b60006116c96026836112aa565b91506116d48261166d565b604082019050919050565b600060208201905081810360008301526116f8816116bc565b9050919050565b7f4e487b7100000000000000000000000000000000000000000000000000000000600052601160045260246000fd5b600061173982610e36565b91506000820361174c5761174b6116ff565b5b600182039050919050565b600061176282610e36565b91507fffffffffffffffffffffffffffffffffffffffffffffffffffffffffffffffff8203611794576117936116ff565b5b60018201905091905056fea26469706673582212209e49aea1d45d25c1b8fe93ba12cc74dc722f10c32d28974011764f77fe3b47e764736f6c634300080d0033",
  "immutableReferences": {},
  "source": "// SPDX-License-Identifier: MIT\npragma solidity >=0.4.22 <0.9.0;\n\nimport './ERC165.sol';\nimport './interfaces/IERC721.sol';\nimport './interfaces/IERC721Metadata.sol';\n\ncontract ERC721 is IERC721, ERC165 {\n    mapping(uint256 => address) private _owners;\n    mapping(address => uint256) private _balances;\n    mapping(uint256 => address) private _approvedAddress;\n    mapping(address => mapping(address => bool)) _approvedOperators;\n\n    constructor() {\n        registerInterface(\n          bytes4(keccak256('balanceOf(bytes4)'))^\n          bytes4(keccak256('ownerOf(bytes4)'))^\n          bytes4(keccak256('transferFrom(bytes4)'))\n        );\n    }\n\n    function balanceOf(address _owner) external view returns (uint256) {\n        require(_owner != address(0), 'Cannot find balance of the zero address');\n        return _balances[_owner];\n    }\n\n    function ownerOf(uint256 _tokenId) external view returns (address) {\n        address owner = _owners[_tokenId];\n        require(owner != address(0), 'Token does not have a valid owner address');\n        return owner;\n    }\n\n    function safeTransferFrom(address _from, address _to, uint256 _tokenId, bytes memory data) external payable {\n        _transfer(_from, _to, _tokenId);\n\n        // More stuff\n    }\n\n    function safeTransferFrom(address _from, address _to, uint256 _tokenId) external payable {\n        _transfer(_from, _to, _tokenId);\n\n        // More stuff\n    }\n\n    function transferFrom(address _from, address _to, uint256 _tokenId) external payable {\n        _transfer(_from, _to, _tokenId);\n    }\n\n    function approve(address _approved, uint256 _tokenId) external payable {\n        require(msg.sender == _owners[_tokenId] || _approvedAddress[_tokenId] == msg.sender, 'Approval is only allowed by authorized addresses');\n        require(\n            _approved != address(0),\n            'Can'\n            't approve zero address'\n        );\n\n        _approvedAddress[_tokenId] = _approved;\n\n        emit Approval(_owners[_tokenId], _approved, _tokenId);\n    }\n\n    function setApprovalForAll(address _operator, bool _approved) external {\n        _approvedOperators[msg.sender][_operator] = _approved;\n\n        emit ApprovalForAll(msg.sender, _operator, _approved);\n    }\n\n    function getApproved(uint256 _tokenId) external view returns (address) {\n        return _approvedAddress[_tokenId];\n    }\n\n    function isApprovedForAll(address _owner, address _operator) external view returns (bool) {\n        return _approvedOperators[_owner][_operator];\n    }\n\n    function _mint(address to, uint256 tokenId) internal virtual {\n        require(to != address(0), 'Not a valid address');\n\n        _owners[tokenId] = to;\n        _balances[to]++;\n\n        emit Transfer(address(0), to, tokenId);\n    }\n\n    function _transfer(address _from, address _to, uint256 _tokenId) private {\n        require(msg.sender == _owners[_tokenId] || _approvedAddress[_tokenId] == msg.sender, 'Transfer can only be initiated by approved addresses');\n        require(_from == _owners[_tokenId], 'Transfer must be from the current owner');\n        require(_to != address(0), 'Transfer cannot be to the zero address');\n\n        _owners[_tokenId] = _to;\n        _balances[_from]--;\n        _balances[_to]++;\n\n        emit Transfer(_from, _to, _tokenId);\n    }\n}\n",
  "sourcePath": "/Users/mattsaxe17/repos/personal-nft-marketplace/src/contracts/ERC721.sol",
  "compiler": {
    "name": "solc",
    "version": "0.8.13+commit.abaa5c0e.Emscripten.clang"
  },
  "schemaVersion": "3.4.4",
  "updatedAt": "2022-03-22T00:47:23.568Z",
  "devdoc": {
    "kind": "dev",
    "methods": {},
    "version": 1
  },
  "userdoc": {
    "kind": "user",
    "methods": {},
    "version": 1
  }
}