{
  "contractName": "ERC721Enumerable",
  "abi": [
    {
      "anonymous": false,
      "inputs": [
        {
          "indexed": true,
          "internalType": "address",
          "name": "_owner",
          "type": "address"
        },
        {
          "indexed": true,
          "internalType": "address",
          "name": "_approved",
          "type": "address"
        },
        {
          "indexed": true,
          "internalType": "uint256",
          "name": "_tokenId",
          "type": "uint256"
        }
      ],
      "name": "Approval",
      "type": "event"
    },
    {
      "anonymous": false,
      "inputs": [
        {
          "indexed": true,
          "internalType": "address",
          "name": "_owner",
          "type": "address"
        },
        {
          "indexed": true,
          "internalType": "address",
          "name": "_operator",
          "type": "address"
        },
        {
          "indexed": false,
          "internalType": "bool",
          "name": "_approved",
          "type": "bool"
        }
      ],
      "name": "ApprovalForAll",
      "type": "event"
    },
    {
      "anonymous": false,
      "inputs": [
        {
          "indexed": true,
          "internalType": "address",
          "name": "_from",
          "type": "address"
        },
        {
          "indexed": true,
          "internalType": "address",
          "name": "_to",
          "type": "address"
        },
        {
          "indexed": true,
          "internalType": "uint256",
          "name": "_tokenId",
          "type": "uint256"
        }
      ],
      "name": "Transfer",
      "type": "event"
    },
    {
      "inputs": [
        {
          "internalType": "address",
          "name": "_approved",
          "type": "address"
        },
        {
          "internalType": "uint256",
          "name": "_tokenId",
          "type": "uint256"
        }
      ],
      "name": "approve",
      "outputs": [],
      "stateMutability": "payable",
      "type": "function"
    },
    {
      "inputs": [
        {
          "internalType": "address",
          "name": "_owner",
          "type": "address"
        }
      ],
      "name": "balanceOf",
      "outputs": [
        {
          "internalType": "uint256",
          "name": "",
          "type": "uint256"
        }
      ],
      "stateMutability": "view",
      "type": "function"
    },
    {
      "inputs": [],
      "name": "calcFingerprint",
      "outputs": [
        {
          "internalType": "bytes4",
          "name": "",
          "type": "bytes4"
        }
      ],
      "stateMutability": "pure",
      "type": "function"
    },
    {
      "inputs": [
        {
          "internalType": "uint256",
          "name": "_tokenId",
          "type": "uint256"
        }
      ],
      "name": "getApproved",
      "outputs": [
        {
          "internalType": "address",
          "name": "",
          "type": "address"
        }
      ],
      "stateMutability": "view",
      "type": "function"
    },
    {
      "inputs": [
        {
          "internalType": "address",
          "name": "_owner",
          "type": "address"
        },
        {
          "internalType": "address",
          "name": "_operator",
          "type": "address"
        }
      ],
      "name": "isApprovedForAll",
      "outputs": [
        {
          "internalType": "bool",
          "name": "",
          "type": "bool"
        }
      ],
      "stateMutability": "view",
      "type": "function"
    },
    {
      "inputs": [
        {
          "internalType": "uint256",
          "name": "_tokenId",
          "type": "uint256"
        }
      ],
      "name": "ownerOf",
      "outputs": [
        {
          "internalType": "address",
          "name": "",
          "type": "address"
        }
      ],
      "stateMutability": "view",
      "type": "function"
    },
    {
      "inputs": [
        {
          "internalType": "bytes4",
          "name": "interfaceId",
          "type": "bytes4"
        }
      ],
      "name": "registerInterface",
      "outputs": [],
      "stateMutability": "nonpayable",
      "type": "function"
    },
    {
      "inputs": [
        {
          "internalType": "address",
          "name": "_from",
          "type": "address"
        },
        {
          "internalType": "address",
          "name": "_to",
          "type": "address"
        },
        {
          "internalType": "uint256",
          "name": "_tokenId",
          "type": "uint256"
        }
      ],
      "name": "safeTransferFrom",
      "outputs": [],
      "stateMutability": "payable",
      "type": "function"
    },
    {
      "inputs": [
        {
          "internalType": "address",
          "name": "_from",
          "type": "address"
        },
        {
          "internalType": "address",
          "name": "_to",
          "type": "address"
        },
        {
          "internalType": "uint256",
          "name": "_tokenId",
          "type": "uint256"
        },
        {
          "internalType": "bytes",
          "name": "data",
          "type": "bytes"
        }
      ],
      "name": "safeTransferFrom",
      "outputs": [],
      "stateMutability": "payable",
      "type": "function"
    },
    {
      "inputs": [
        {
          "internalType": "address",
          "name": "_operator",
          "type": "address"
        },
        {
          "internalType": "bool",
          "name": "_approved",
          "type": "bool"
        }
      ],
      "name": "setApprovalForAll",
      "outputs": [],
      "stateMutability": "nonpayable",
      "type": "function"
    },
    {
      "inputs": [
        {
          "internalType": "bytes4",
          "name": "interfaceID",
          "type": "bytes4"
        }
      ],
      "name": "supportsInterface",
      "outputs": [
        {
          "internalType": "bool",
          "name": "",
          "type": "bool"
        }
      ],
      "stateMutability": "view",
      "type": "function"
    },
    {
      "inputs": [
        {
          "internalType": "address",
          "name": "_from",
          "type": "address"
        },
        {
          "internalType": "address",
          "name": "_to",
          "type": "address"
        },
        {
          "internalType": "uint256",
          "name": "_tokenId",
          "type": "uint256"
        }
      ],
      "name": "transferFrom",
      "outputs": [],
      "stateMutability": "payable",
      "type": "function"
    },
    {
      "inputs": [],
      "name": "totalSupply",
      "outputs": [
        {
          "internalType": "uint256",
          "name": "",
          "type": "uint256"
        }
      ],
      "stateMutability": "view",
      "type": "function"
    },
    {
      "inputs": [
        {
          "internalType": "uint256",
          "name": "_index",
          "type": "uint256"
        }
      ],
      "name": "tokenByIndex",
      "outputs": [
        {
          "internalType": "uint256",
          "name": "",
          "type": "uint256"
        }
      ],
      "stateMutability": "view",
      "type": "function"
    },
    {
      "inputs": [
        {
          "internalType": "address",
          "name": "_owner",
          "type": "address"
        },
        {
          "internalType": "uint256",
          "name": "_index",
          "type": "uint256"
        }
      ],
      "name": "tokenOfOwnerByIndex",
      "outputs": [
        {
          "internalType": "uint256",
          "name": "",
          "type": "uint256"
        }
      ],
      "stateMutability": "view",
      "type": "function"
    },
    {
      "inputs": [
        {
          "internalType": "uint256",
          "name": "index",
          "type": "uint256"
        }
      ],
      "name": "getTokenByIndex",
      "outputs": [
        {
          "internalType": "uint256",
          "name": "",
          "type": "uint256"
        }
      ],
      "stateMutability": "view",
      "type": "function"
    },
    {
      "inputs": [
        {
          "internalType": "address",
          "name": "owner",
          "type": "address"
        },
        {
          "internalType": "uint256",
          "name": "index",
          "type": "uint256"
        }
      ],
      "name": "getTokenOfOwnerByIndex",
      "outputs": [
        {
          "internalType": "uint256",
          "name": "",
          "type": "uint256"
        }
      ],
      "stateMutability": "view",
      "type": "function"
    }
  ],
  "bytecode": "0x60806040523480156200001157600080fd5b506200003262000026620000ad60201b60201c565b620000d560201b60201c565b620000a77f22c82707ba960a14c7592ffb6b8cfaa073fed0048a84cc7fa41f6b5bd8e7f2e47f3a6eb71757dfc6e784c1459d26270140c2c147d95ca985c80026fc5301c3eca17f8a7e378434598edc36d108689a030cbc9d7d465de4f74c71bae1028eed6a881b1818620000d560201b60201c565b62000230565b60007f01ffc9a7a5cef8baa21ed3c5c0d7e23accb804b619e9333b597f47a0d84076e2905090565b63ffffffff60e01b817bffffffffffffffffffffffffffffffffffffffffffffffffffffffff1916141562000141576040517f08c379a000000000000000000000000000000000000000000000000000000000815260040162000138906200020e565b60405180910390fd5b6001600080837bffffffffffffffffffffffffffffffffffffffffffffffffffffffff19167bffffffffffffffffffffffffffffffffffffffffffffffffffffffff1916815260200190815260200160002060006101000a81548160ff02191690831515021790555050565b600082825260208201905092915050565b7f4552433136353a20496e76616c696420696e7465726661636500000000000000600082015250565b6000620001f6601983620001ad565b91506200020382620001be565b602082019050919050565b600060208201905081810360008301526200022981620001e7565b9050919050565b611d1a80620002406000396000f3fe6080604052600436106100fe5760003560e01c806342842e0e1161009557806370a082311161006457806370a0823114610344578063a22cb46514610381578063ac615f70146103aa578063b88d4fde146103e7578063e985e9c514610403576100fe565b806342842e0e146102715780634f6ccce71461028d5780636352211e146102ca578063644b7a4314610307576100fe565b8063214cdb80116100d1578063214cdb80146101c457806323b872dd146101ed5780632f745c59146102095780633da173ba14610246576100fe565b806301ffc9a714610103578063081812fc14610140578063095ea7b31461017d57806318160ddd14610199575b600080fd5b34801561010f57600080fd5b5061012a600480360381019061012591906111a3565b610440565b60405161013791906111eb565b60405180910390f35b34801561014c57600080fd5b506101676004803603810190610162919061123c565b6104a7565b60405161017491906112aa565b60405180910390f35b610197600480360381019061019291906112f1565b6104e4565b005b3480156101a557600080fd5b506101ae610742565b6040516101bb9190611340565b60405180910390f35b3480156101d057600080fd5b506101eb60048036038101906101e691906111a3565b61074f565b005b6102076004803603810190610202919061135b565b610824565b005b34801561021557600080fd5b50610230600480360381019061022b91906112f1565b610834565b60405161023d9190611340565b60405180910390f35b34801561025257600080fd5b5061025b61089a565b60405161026891906113bd565b60405180910390f35b61028b6004803603810190610286919061135b565b6108c2565b005b34801561029957600080fd5b506102b460048036038101906102af919061123c565b6108d2565b6040516102c19190611340565b60405180910390f35b3480156102d657600080fd5b506102f160048036038101906102ec919061123c565b610941565b6040516102fe91906112aa565b60405180910390f35b34801561031357600080fd5b5061032e6004803603810190610329919061123c565b6109f3565b60405161033b9190611340565b60405180910390f35b34801561035057600080fd5b5061036b600480360381019061036691906113d8565b610a70565b6040516103789190611340565b60405180910390f35b34801561038d57600080fd5b506103a860048036038101906103a39190611431565b610b28565b005b3480156103b657600080fd5b506103d160048036038101906103cc91906112f1565b610c25565b6040516103de9190611340565b60405180910390f35b61040160048036038101906103fc91906115b7565b610d1b565b005b34801561040f57600080fd5b5061042a6004803603810190610425919061163a565b610d2c565b60405161043791906111eb565b60405180910390f35b6000806000837bffffffffffffffffffffffffffffffffffffffffffffffffffffffff19167bffffffffffffffffffffffffffffffffffffffffffffffffffffffff1916815260200190815260200160002060009054906101000a900460ff169050919050565b60006003600083815260200190815260200160002060009054906101000a900473ffffffffffffffffffffffffffffffffffffffff169050919050565b6001600082815260200190815260200160002060009054906101000a900473ffffffffffffffffffffffffffffffffffffffff1673ffffffffffffffffffffffffffffffffffffffff163373ffffffffffffffffffffffffffffffffffffffff1614806105af57503373ffffffffffffffffffffffffffffffffffffffff166003600083815260200190815260200160002060009054906101000a900473ffffffffffffffffffffffffffffffffffffffff1673ffffffffffffffffffffffffffffffffffffffff16145b6105ee576040517f08c379a00000000000000000000000000000000000000000000000000000000081526004016105e5906116fd565b60405180910390fd5b600073ffffffffffffffffffffffffffffffffffffffff168273ffffffffffffffffffffffffffffffffffffffff16141561065e576040517f08c379a000000000000000000000000000000000000000000000000000000000815260040161065590611769565b60405180910390fd5b816003600083815260200190815260200160002060006101000a81548173ffffffffffffffffffffffffffffffffffffffff021916908373ffffffffffffffffffffffffffffffffffffffff160217905550808273ffffffffffffffffffffffffffffffffffffffff166001600084815260200190815260200160002060009054906101000a900473ffffffffffffffffffffffffffffffffffffffff1673ffffffffffffffffffffffffffffffffffffffff167f8c5be1e5ebec7d5bd14f71427d1e84f3dd0314c0f7b2291e5b200ac8c7c3b92560405160405180910390a45050565b6000600580549050905090565b63ffffffff60e01b817bffffffffffffffffffffffffffffffffffffffffffffffffffffffff191614156107b8576040517f08c379a00000000000000000000000000000000000000000000000000000000081526004016107af906117d5565b60405180910390fd5b6001600080837bffffffffffffffffffffffffffffffffffffffffffffffffffffffff19167bffffffffffffffffffffffffffffffffffffffffffffffffffffffff1916815260200190815260200160002060006101000a81548160ff02191690831515021790555050565b61082f838383610dc0565b505050565b6000600760008473ffffffffffffffffffffffffffffffffffffffff1673ffffffffffffffffffffffffffffffffffffffff1681526020019081526020016000208281548110610887576108866117f5565b5b9060005260206000200154905092915050565b60007f01ffc9a7a5cef8baa21ed3c5c0d7e23accb804b619e9333b597f47a0d84076e2905090565b6108cd838383610dc0565b505050565b6000600580549050821061091b576040517f08c379a000000000000000000000000000000000000000000000000000000000815260040161091290611870565b60405180910390fd5b6005828154811061092f5761092e6117f5565b5b90600052602060002001549050919050565b6000806001600084815260200190815260200160002060009054906101000a900473ffffffffffffffffffffffffffffffffffffffff169050600073ffffffffffffffffffffffffffffffffffffffff168173ffffffffffffffffffffffffffffffffffffffff1614156109ea576040517f08c379a00000000000000000000000000000000000000000000000000000000081526004016109e190611902565b60405180910390fd5b80915050919050565b6000808210158015610a0b5750610a08610742565b82105b610a4a576040517f08c379a0000000000000000000000000000000000000000000000000000000008152600401610a419061196e565b60405180910390fd5b60058281548110610a5e57610a5d6117f5565b5b90600052602060002001549050919050565b60008073ffffffffffffffffffffffffffffffffffffffff168273ffffffffffffffffffffffffffffffffffffffff161415610ae1576040517f08c379a0000000000000000000000000000000000000000000000000000000008152600401610ad890611a00565b60405180910390fd5b600260008373ffffffffffffffffffffffffffffffffffffffff1673ffffffffffffffffffffffffffffffffffffffff168152602001908152602001600020549050919050565b80600460003373ffffffffffffffffffffffffffffffffffffffff1673ffffffffffffffffffffffffffffffffffffffff16815260200190815260200160002060008473ffffffffffffffffffffffffffffffffffffffff1673ffffffffffffffffffffffffffffffffffffffff16815260200190815260200160002060006101000a81548160ff0219169083151502179055508173ffffffffffffffffffffffffffffffffffffffff163373ffffffffffffffffffffffffffffffffffffffff167f17307eab39ab6107e8899845ad3d59bd9653f200f220920489ca2b5937696c3183604051610c1991906111eb565b60405180910390a35050565b6000808210158015610c785750600760008473ffffffffffffffffffffffffffffffffffffffff1673ffffffffffffffffffffffffffffffffffffffff1681526020019081526020016000208054905082105b610cb7576040517f08c379a0000000000000000000000000000000000000000000000000000000008152600401610cae90611a6c565b60405180910390fd5b600760008473ffffffffffffffffffffffffffffffffffffffff1673ffffffffffffffffffffffffffffffffffffffff1681526020019081526020016000208281548110610d0857610d076117f5565b5b9060005260206000200154905092915050565b610d26848484610dc0565b50505050565b6000600460008473ffffffffffffffffffffffffffffffffffffffff1673ffffffffffffffffffffffffffffffffffffffff16815260200190815260200160002060008373ffffffffffffffffffffffffffffffffffffffff1673ffffffffffffffffffffffffffffffffffffffff16815260200190815260200160002060009054906101000a900460ff16905092915050565b6001600082815260200190815260200160002060009054906101000a900473ffffffffffffffffffffffffffffffffffffffff1673ffffffffffffffffffffffffffffffffffffffff163373ffffffffffffffffffffffffffffffffffffffff161480610e8b57503373ffffffffffffffffffffffffffffffffffffffff166003600083815260200190815260200160002060009054906101000a900473ffffffffffffffffffffffffffffffffffffffff1673ffffffffffffffffffffffffffffffffffffffff16145b610eca576040517f08c379a0000000000000000000000000000000000000000000000000000000008152600401610ec190611afe565b60405180910390fd5b6001600082815260200190815260200160002060009054906101000a900473ffffffffffffffffffffffffffffffffffffffff1673ffffffffffffffffffffffffffffffffffffffff168373ffffffffffffffffffffffffffffffffffffffff1614610f6b576040517f08c379a0000000000000000000000000000000000000000000000000000000008152600401610f6290611b90565b60405180910390fd5b600073ffffffffffffffffffffffffffffffffffffffff168273ffffffffffffffffffffffffffffffffffffffff161415610fdb576040517f08c379a0000000000000000000000000000000000000000000000000000000008152600401610fd290611c22565b60405180910390fd5b816001600083815260200190815260200160002060006101000a81548173ffffffffffffffffffffffffffffffffffffffff021916908373ffffffffffffffffffffffffffffffffffffffff160217905550600260008473ffffffffffffffffffffffffffffffffffffffff1673ffffffffffffffffffffffffffffffffffffffff168152602001908152602001600020600081548092919061107d90611c71565b9190505550600260008373ffffffffffffffffffffffffffffffffffffffff1673ffffffffffffffffffffffffffffffffffffffff16815260200190815260200160002060008154809291906110d290611c9b565b9190505550808273ffffffffffffffffffffffffffffffffffffffff168473ffffffffffffffffffffffffffffffffffffffff167fddf252ad1be2c89b69c2b068fc378daa952ba7f163c4a11628f55a4df523b3ef60405160405180910390a4505050565b6000604051905090565b600080fd5b600080fd5b60007fffffffff0000000000000000000000000000000000000000000000000000000082169050919050565b6111808161114b565b811461118b57600080fd5b50565b60008135905061119d81611177565b92915050565b6000602082840312156111b9576111b8611141565b5b60006111c78482850161118e565b91505092915050565b60008115159050919050565b6111e5816111d0565b82525050565b600060208201905061120060008301846111dc565b92915050565b6000819050919050565b61121981611206565b811461122457600080fd5b50565b60008135905061123681611210565b92915050565b60006020828403121561125257611251611141565b5b600061126084828501611227565b91505092915050565b600073ffffffffffffffffffffffffffffffffffffffff82169050919050565b600061129482611269565b9050919050565b6112a481611289565b82525050565b60006020820190506112bf600083018461129b565b92915050565b6112ce81611289565b81146112d957600080fd5b50565b6000813590506112eb816112c5565b92915050565b6000806040838503121561130857611307611141565b5b6000611316858286016112dc565b925050602061132785828601611227565b9150509250929050565b61133a81611206565b82525050565b60006020820190506113556000830184611331565b92915050565b60008060006060848603121561137457611373611141565b5b6000611382868287016112dc565b9350506020611393868287016112dc565b92505060406113a486828701611227565b9150509250925092565b6113b78161114b565b82525050565b60006020820190506113d260008301846113ae565b92915050565b6000602082840312156113ee576113ed611141565b5b60006113fc848285016112dc565b91505092915050565b61140e816111d0565b811461141957600080fd5b50565b60008135905061142b81611405565b92915050565b6000806040838503121561144857611447611141565b5b6000611456858286016112dc565b92505060206114678582860161141c565b9150509250929050565b600080fd5b600080fd5b6000601f19601f8301169050919050565b7f4e487b7100000000000000000000000000000000000000000000000000000000600052604160045260246000fd5b6114c48261147b565b810181811067ffffffffffffffff821117156114e3576114e261148c565b5b80604052505050565b60006114f6611137565b905061150282826114bb565b919050565b600067ffffffffffffffff8211156115225761152161148c565b5b61152b8261147b565b9050602081019050919050565b82818337600083830152505050565b600061155a61155584611507565b6114ec565b90508281526020810184848401111561157657611575611476565b5b611581848285611538565b509392505050565b600082601f83011261159e5761159d611471565b5b81356115ae848260208601611547565b91505092915050565b600080600080608085870312156115d1576115d0611141565b5b60006115df878288016112dc565b94505060206115f0878288016112dc565b935050604061160187828801611227565b925050606085013567ffffffffffffffff81111561162257611621611146565b5b61162e87828801611589565b91505092959194509250565b6000806040838503121561165157611650611141565b5b600061165f858286016112dc565b9250506020611670858286016112dc565b9150509250929050565b600082825260208201905092915050565b7f417070726f76616c206973206f6e6c7920616c6c6f776564206279206175746860008201527f6f72697a65642061646472657373657300000000000000000000000000000000602082015250565b60006116e760308361167a565b91506116f28261168b565b604082019050919050565b60006020820190508181036000830152611716816116da565b9050919050565b7f43616e7420617070726f7665207a65726f206164647265737300000000000000600082015250565b600061175360198361167a565b915061175e8261171d565b602082019050919050565b6000602082019050818103600083015261178281611746565b9050919050565b7f4552433136353a20496e76616c696420696e7465726661636500000000000000600082015250565b60006117bf60198361167a565b91506117ca82611789565b602082019050919050565b600060208201905081810360008301526117ee816117b2565b9050919050565b7f4e487b7100000000000000000000000000000000000000000000000000000000600052603260045260246000fd5b7f546f6b656e20617420696e64657820646f6573206e6f74206578697374000000600082015250565b600061185a601d8361167a565b915061186582611824565b602082019050919050565b600060208201905081810360008301526118898161184d565b9050919050565b7f546f6b656e20646f6573206e6f74206861766520612076616c6964206f776e6560008201527f7220616464726573730000000000000000000000000000000000000000000000602082015250565b60006118ec60298361167a565b91506118f782611890565b604082019050919050565b6000602082019050818103600083015261191b816118df565b9050919050565b7f476c6f62616c20696e646578206973206f7574206f6620626f756e6473000000600082015250565b6000611958601d8361167a565b915061196382611922565b602082019050919050565b600060208201905081810360008301526119878161194b565b9050919050565b7f43616e6e6f742066696e642062616c616e6365206f6620746865207a65726f2060008201527f6164647265737300000000000000000000000000000000000000000000000000602082015250565b60006119ea60278361167a565b91506119f58261198e565b604082019050919050565b60006020820190508181036000830152611a19816119dd565b9050919050565b7f4f776e657220696e646578206973206f7574206f6620626f756e647300000000600082015250565b6000611a56601c8361167a565b9150611a6182611a20565b602082019050919050565b60006020820190508181036000830152611a8581611a49565b9050919050565b7f5472616e736665722063616e206f6e6c7920626520696e69746961746564206260008201527f7920617070726f76656420616464726573736573000000000000000000000000602082015250565b6000611ae860348361167a565b9150611af382611a8c565b604082019050919050565b60006020820190508181036000830152611b1781611adb565b9050919050565b7f5472616e73666572206d7573742062652066726f6d207468652063757272656e60008201527f74206f776e657200000000000000000000000000000000000000000000000000602082015250565b6000611b7a60278361167a565b9150611b8582611b1e565b604082019050919050565b60006020820190508181036000830152611ba981611b6d565b9050919050565b7f5472616e736665722063616e6e6f7420626520746f20746865207a65726f206160008201527f6464726573730000000000000000000000000000000000000000000000000000602082015250565b6000611c0c60268361167a565b9150611c1782611bb0565b604082019050919050565b60006020820190508181036000830152611c3b81611bff565b9050919050565b7f4e487b7100000000000000000000000000000000000000000000000000000000600052601160045260246000fd5b6000611c7c82611206565b91506000821415611c9057611c8f611c42565b5b600182039050919050565b6000611ca682611206565b91507fffffffffffffffffffffffffffffffffffffffffffffffffffffffffffffffff821415611cd957611cd8611c42565b5b60018201905091905056fea26469706673582212206987333139dc15d6398851df6bd2ec33ab3ebe5f1428274c23d413ccc2b4ae1164736f6c634300080b0033",
  "immutableReferences": {},
  "source": "// SPDX-License-Identifier: MIT\npragma solidity >=0.4.22 <0.9.0;\n\nimport './ERC721.sol';\nimport './interfaces/IERC721Enumerable.sol';\n\ncontract ERC721Enumerable is IERC721Enumerable, ERC721 {\n    uint256[] private _allTokens;\n\n    // Mapping from tokenId to position in _allTokens\n    mapping(uint256 => uint256) _tokenPositions;\n\n    // Mapping of owner to list of all token Ids\n    mapping(address => uint256[]) _ownerTokens;\n\n    // Mapping from token Id to index in ownerTokens\n    mapping(uint256 => uint256) private _ownedTokensList;\n\n    function totalSupply() public view returns (uint256) {\n        return _allTokens.length;\n    }\n\n    function tokenByIndex(uint256 _index) external view returns (uint256) {\n        require(_index < _allTokens.length, 'Token at index does not exist');\n        return _allTokens[_index];\n    }\n\n    /// @notice Enumerate NFTs assigned to an owner\n    /// @dev Throws if `_index` >= `balanceOf(_owner)` or if\n    ///  `_owner` is the zero address, representing invalid NFTs.\n    /// @param _owner An address where we are interested in NFTs owned by them\n    /// @param _index A counter less than `balanceOf(_owner)`\n    /// @return The token identifier for the `_index`th NFT assigned to `_owner`,\n    ///   (sort order not specified)\n    function tokenOfOwnerByIndex(address _owner, uint256 _index) external view returns (uint256) {\n        return _ownerTokens[_owner][_index];\n    }\n\n    function _mint(address to, uint256 tokenId) internal override(ERC721) {\n        _addTokensToAllTokensEnum(tokenId);\n        _addTokensToOwnerEnum(to, tokenId);\n\n        super._mint(to, tokenId);\n    }\n\n    function _addTokensToOwnerEnum(address to, uint256 tokenId) private {\n        _ownedTokensList[tokenId] = _ownerTokens[to].length;\n        _ownerTokens[to].push(tokenId);\n    }\n\n    function _addTokensToAllTokensEnum(uint256 tokenId) private {\n        _tokenPositions[tokenId] = _allTokens.length;\n        _allTokens.push(tokenId);\n    }\n\n    function getTokenByIndex(uint256 index) public view returns (uint256) {\n        require(index >= 0 && index < totalSupply(), 'Global index is out of bounds');\n        return _allTokens[index];\n    }\n\n    function getTokenOfOwnerByIndex(address owner, uint256 index) public view returns (uint256) {\n        require(index >= 0 && index < _ownerTokens[owner].length, 'Owner index is out of bounds');\n        return _ownerTokens[owner][index];\n    }\n}\n",
  "sourcePath": "/Users/mattsaxe17/repos/_eth/nft-marketplace-starter-kit/src/contracts/ERC721Enumerable.sol",
  "compiler": {
    "name": "solc",
    "version": "0.8.11+commit.d7f03943.Emscripten.clang"
  },
  "schemaVersion": "3.4.4",
  "updatedAt": "2022-02-13T16:47:25.035Z",
  "devdoc": {
    "kind": "dev",
    "methods": {
      "tokenOfOwnerByIndex(address,uint256)": {
        "details": "Throws if `_index` >= `balanceOf(_owner)` or if  `_owner` is the zero address, representing invalid NFTs.",
        "params": {
          "_index": "A counter less than `balanceOf(_owner)`",
          "_owner": "An address where we are interested in NFTs owned by them"
        },
        "returns": {
          "_0": "The token identifier for the `_index`th NFT assigned to `_owner`,   (sort order not specified)"
        }
      }
    },
    "version": 1
  },
  "userdoc": {
    "kind": "user",
    "methods": {
      "tokenOfOwnerByIndex(address,uint256)": {
        "notice": "Enumerate NFTs assigned to an owner"
      }
    },
    "version": 1
  }
}