{
  "contractName": "ERC721Metadata",
  "abi": [
    {
      "inputs": [
        {
          "internalType": "string",
          "name": "name",
          "type": "string"
        },
        {
          "internalType": "string",
          "name": "symbol",
          "type": "string"
        }
      ],
      "stateMutability": "nonpayable",
      "type": "constructor"
    },
    {
      "inputs": [],
      "name": "name",
      "outputs": [
        {
          "internalType": "string",
          "name": "",
          "type": "string"
        }
      ],
      "stateMutability": "view",
      "type": "function"
    },
    {
      "inputs": [],
      "name": "symbol",
      "outputs": [
        {
          "internalType": "string",
          "name": "",
          "type": "string"
        }
      ],
      "stateMutability": "view",
      "type": "function"
    },
    {
      "inputs": [
        {
          "internalType": "uint256",
          "name": "_tokenId",
          "type": "uint256"
        }
      ],
      "name": "tokenURI",
      "outputs": [
        {
          "internalType": "string",
          "name": "",
          "type": "string"
        }
      ],
      "stateMutability": "view",
      "type": "function"
    }
  ],
  "bytecode": "0x608060405234801561001057600080fd5b5060405161070738038061070783398181016040528101906100329190610288565b8160009080519060200190610048929190610067565b50806001908051906020019061005f929190610067565b505050610361565b8280546100739061032f565b90600052602060002090601f01602090048101928261009557600085556100dc565b82601f106100ae57805160ff19168380011785556100dc565b828001600101855582156100dc579182015b828111156100db5782518255916020019190600101906100c0565b5b5090506100e991906100ed565b5090565b5b808211156101065760008160009055506001016100ee565b5090565b6000604051905090565b600080fd5b600080fd5b600080fd5b600080fd5b6000601f19601f8301169050919050565b7f4e487b7100000000000000000000000000000000000000000000000000000000600052604160045260246000fd5b61017182610128565b810181811067ffffffffffffffff821117156101905761018f610139565b5b80604052505050565b60006101a361010a565b90506101af8282610168565b919050565b600067ffffffffffffffff8211156101cf576101ce610139565b5b6101d882610128565b9050602081019050919050565b60005b838110156102035780820151818401526020810190506101e8565b83811115610212576000848401525b50505050565b600061022b610226846101b4565b610199565b90508281526020810184848401111561024757610246610123565b5b6102528482856101e5565b509392505050565b600082601f83011261026f5761026e61011e565b5b815161027f848260208601610218565b91505092915050565b6000806040838503121561029f5761029e610114565b5b600083015167ffffffffffffffff8111156102bd576102bc610119565b5b6102c98582860161025a565b925050602083015167ffffffffffffffff8111156102ea576102e9610119565b5b6102f68582860161025a565b9150509250929050565b7f4e487b7100000000000000000000000000000000000000000000000000000000600052602260045260246000fd5b6000600282049050600182168061034757607f821691505b6020821081141561035b5761035a610300565b5b50919050565b610397806103706000396000f3fe608060405234801561001057600080fd5b50600436106100415760003560e01c806306fdde031461004657806395d89b4114610064578063c87b56dd14610082575b600080fd5b61004e6100b2565b60405161005b9190610276565b60405180910390f35b61006c610144565b6040516100799190610276565b60405180910390f35b61009c600480360381019061009791906102d3565b6101d6565b6040516100a99190610276565b60405180910390f35b6060600080546100c19061032f565b80601f01602080910402602001604051908101604052809291908181526020018280546100ed9061032f565b801561013a5780601f1061010f5761010080835404028352916020019161013a565b820191906000526020600020905b81548152906001019060200180831161011d57829003601f168201915b5050505050905090565b6060600180546101539061032f565b80601f016020809104026020016040519081016040528092919081815260200182805461017f9061032f565b80156101cc5780601f106101a1576101008083540402835291602001916101cc565b820191906000526020600020905b8154815290600101906020018083116101af57829003601f168201915b5050505050905090565b6060919050565b600081519050919050565b600082825260208201905092915050565b60005b838110156102175780820151818401526020810190506101fc565b83811115610226576000848401525b50505050565b6000601f19601f8301169050919050565b6000610248826101dd565b61025281856101e8565b93506102628185602086016101f9565b61026b8161022c565b840191505092915050565b60006020820190508181036000830152610290818461023d565b905092915050565b600080fd5b6000819050919050565b6102b08161029d565b81146102bb57600080fd5b50565b6000813590506102cd816102a7565b92915050565b6000602082840312156102e9576102e8610298565b5b60006102f7848285016102be565b91505092915050565b7f4e487b7100000000000000000000000000000000000000000000000000000000600052602260045260246000fd5b6000600282049050600182168061034757607f821691505b6020821081141561035b5761035a610300565b5b5091905056fea2646970667358221220d1476fbcac52f5d7d4a301a1c18ed859e836c261bec5da8156e10d49658b3b2a64736f6c634300080b0033",
  "immutableReferences": {},
  "source": "// SPDX-License-Identifier: MIT\npragma solidity >=0.4.22 <0.9.0;\n\nimport './interfaces/IERC721Metadata.sol';\n\ncontract ERC721Metadata is IERC721Metadata {\n    string private _name;\n    string private _symbol;\n\n    constructor(string memory name, string memory symbol) {\n        _name = name;\n        _symbol = symbol;\n    }\n\n    function name() external view returns (string memory) {\n        return _name;\n    }\n\n    function symbol() external view returns (string memory) {\n        return _symbol;\n    }\n\n    function tokenURI(uint256 _tokenId) external view returns (string memory) {\n\n    }\n}\n",
  "sourcePath": "/Users/mattsaxe17/repos/_eth/nft-marketplace-starter-kit/src/contracts/ERC721Metadata.sol",
  "compiler": {
    "name": "solc",
    "version": "0.8.11+commit.d7f03943.Emscripten.clang"
  },
  "schemaVersion": "3.4.4",
  "updatedAt": "2022-02-13T16:47:25.042Z",
  "devdoc": {
    "kind": "dev",
    "methods": {},
    "version": 1
  },
  "userdoc": {
    "kind": "user",
    "methods": {},
    "version": 1
  }
}